{
  "_format": "hh-sol-artifact-1",
  "contractName": "GlobeArtNFT",
  "sourceName": "contracts/GlobeArtNFT.sol",
  "abi": [
    {
      "inputs": [],
      "stateMutability": "nonpayable",
      "type": "constructor"
    },
    {
      "anonymous": false,
      "inputs": [
        {
          "indexed": true,
          "internalType": "address",
          "name": "owner",
          "type": "address"
        },
        {
          "indexed": true,
          "internalType": "address",
          "name": "approved",
          "type": "address"
        },
        {
          "indexed": true,
          "internalType": "uint256",
          "name": "tokenId",
          "type": "uint256"
        }
      ],
      "name": "Approval",
      "type": "event"
    },
    {
      "anonymous": false,
      "inputs": [
        {
          "indexed": true,
          "internalType": "address",
          "name": "owner",
          "type": "address"
        },
        {
          "indexed": true,
          "internalType": "address",
          "name": "operator",
          "type": "address"
        },
        {
          "indexed": false,
          "internalType": "bool",
          "name": "approved",
          "type": "bool"
        }
      ],
      "name": "ApprovalForAll",
      "type": "event"
    },
    {
      "anonymous": false,
      "inputs": [
        {
          "indexed": true,
          "internalType": "address",
          "name": "previousOwner",
          "type": "address"
        },
        {
          "indexed": true,
          "internalType": "address",
          "name": "newOwner",
          "type": "address"
        }
      ],
      "name": "OwnershipTransferred",
      "type": "event"
    },
    {
      "anonymous": false,
      "inputs": [
        {
          "indexed": true,
          "internalType": "address",
          "name": "from",
          "type": "address"
        },
        {
          "indexed": true,
          "internalType": "address",
          "name": "to",
          "type": "address"
        },
        {
          "indexed": true,
          "internalType": "uint256",
          "name": "tokenId",
          "type": "uint256"
        }
      ],
      "name": "Transfer",
      "type": "event"
    },
    {
      "inputs": [
        {
          "internalType": "address",
          "name": "to",
          "type": "address"
        },
        {
          "internalType": "uint256",
          "name": "tokenId",
          "type": "uint256"
        }
      ],
      "name": "approve",
      "outputs": [],
      "stateMutability": "nonpayable",
      "type": "function"
    },
    {
      "inputs": [
        {
          "internalType": "address",
          "name": "owner",
          "type": "address"
        }
      ],
      "name": "balanceOf",
      "outputs": [
        {
          "internalType": "uint256",
          "name": "",
          "type": "uint256"
        }
      ],
      "stateMutability": "view",
      "type": "function"
    },
    {
      "inputs": [
        {
          "internalType": "string",
          "name": "tokenURI",
          "type": "string"
        }
      ],
      "name": "createGlobeArtNFT",
      "outputs": [
        {
          "internalType": "uint256",
          "name": "",
          "type": "uint256"
        }
      ],
      "stateMutability": "nonpayable",
      "type": "function"
    },
    {
      "inputs": [
        {
          "internalType": "uint256",
          "name": "tokenId",
          "type": "uint256"
        }
      ],
      "name": "getApproved",
      "outputs": [
        {
          "internalType": "address",
          "name": "",
          "type": "address"
        }
      ],
      "stateMutability": "view",
      "type": "function"
    },
    {
      "inputs": [
        {
          "internalType": "address",
          "name": "owner",
          "type": "address"
        },
        {
          "internalType": "address",
          "name": "operator",
          "type": "address"
        }
      ],
      "name": "isApprovedForAll",
      "outputs": [
        {
          "internalType": "bool",
          "name": "",
          "type": "bool"
        }
      ],
      "stateMutability": "view",
      "type": "function"
    },
    {
      "inputs": [],
      "name": "name",
      "outputs": [
        {
          "internalType": "string",
          "name": "",
          "type": "string"
        }
      ],
      "stateMutability": "view",
      "type": "function"
    },
    {
      "inputs": [],
      "name": "owner",
      "outputs": [
        {
          "internalType": "address",
          "name": "",
          "type": "address"
        }
      ],
      "stateMutability": "view",
      "type": "function"
    },
    {
      "inputs": [
        {
          "internalType": "uint256",
          "name": "tokenId",
          "type": "uint256"
        }
      ],
      "name": "ownerOf",
      "outputs": [
        {
          "internalType": "address",
          "name": "",
          "type": "address"
        }
      ],
      "stateMutability": "view",
      "type": "function"
    },
    {
      "inputs": [],
      "name": "renounceOwnership",
      "outputs": [],
      "stateMutability": "nonpayable",
      "type": "function"
    },
    {
      "inputs": [
        {
          "internalType": "address",
          "name": "from",
          "type": "address"
        },
        {
          "internalType": "address",
          "name": "to",
          "type": "address"
        },
        {
          "internalType": "uint256",
          "name": "tokenId",
          "type": "uint256"
        }
      ],
      "name": "safeTransferFrom",
      "outputs": [],
      "stateMutability": "nonpayable",
      "type": "function"
    },
    {
      "inputs": [
        {
          "internalType": "address",
          "name": "from",
          "type": "address"
        },
        {
          "internalType": "address",
          "name": "to",
          "type": "address"
        },
        {
          "internalType": "uint256",
          "name": "tokenId",
          "type": "uint256"
        },
        {
          "internalType": "bytes",
          "name": "_data",
          "type": "bytes"
        }
      ],
      "name": "safeTransferFrom",
      "outputs": [],
      "stateMutability": "nonpayable",
      "type": "function"
    },
    {
      "inputs": [
        {
          "internalType": "address",
          "name": "operator",
          "type": "address"
        },
        {
          "internalType": "bool",
          "name": "approved",
          "type": "bool"
        }
      ],
      "name": "setApprovalForAll",
      "outputs": [],
      "stateMutability": "nonpayable",
      "type": "function"
    },
    {
      "inputs": [
        {
          "internalType": "bytes4",
          "name": "interfaceId",
          "type": "bytes4"
        }
      ],
      "name": "supportsInterface",
      "outputs": [
        {
          "internalType": "bool",
          "name": "",
          "type": "bool"
        }
      ],
      "stateMutability": "view",
      "type": "function"
    },
    {
      "inputs": [],
      "name": "symbol",
      "outputs": [
        {
          "internalType": "string",
          "name": "",
          "type": "string"
        }
      ],
      "stateMutability": "view",
      "type": "function"
    },
    {
      "inputs": [],
      "name": "tokenCount",
      "outputs": [
        {
          "internalType": "uint256",
          "name": "",
          "type": "uint256"
        }
      ],
      "stateMutability": "view",
      "type": "function"
    },
    {
      "inputs": [
        {
          "internalType": "uint256",
          "name": "tokenId",
          "type": "uint256"
        }
      ],
      "name": "tokenURI",
      "outputs": [
        {
          "internalType": "string",
          "name": "",
          "type": "string"
        }
      ],
      "stateMutability": "view",
      "type": "function"
    },
    {
      "inputs": [
        {
          "internalType": "address",
          "name": "from",
          "type": "address"
        },
        {
          "internalType": "address",
          "name": "to",
          "type": "address"
        },
        {
          "internalType": "uint256",
          "name": "tokenId",
          "type": "uint256"
        }
      ],
      "name": "transferFrom",
      "outputs": [],
      "stateMutability": "nonpayable",
      "type": "function"
    },
    {
      "inputs": [
        {
          "internalType": "address",
          "name": "newOwner",
          "type": "address"
        }
      ],
      "name": "transferOwnership",
      "outputs": [],
      "stateMutability": "nonpayable",
      "type": "function"
    }
  ],
  "bytecode": "0x60806040523480156200001157600080fd5b506040518060400160405280600b81526020017f676c6f62654172744e46540000000000000000000000000000000000000000008152506040518060400160405280600581526020017f47414e4654000000000000000000000000000000000000000000000000000000815250816000908051906020019062000096929190620001a6565b508060019080519060200190620000af929190620001a6565b505050620000d2620000c6620000d860201b60201c565b620000e060201b60201c565b620002bb565b600033905090565b6000600760009054906101000a900473ffffffffffffffffffffffffffffffffffffffff16905081600760006101000a81548173ffffffffffffffffffffffffffffffffffffffff021916908373ffffffffffffffffffffffffffffffffffffffff1602179055508173ffffffffffffffffffffffffffffffffffffffff168173ffffffffffffffffffffffffffffffffffffffff167f8be0079c531659141344cd1fd0a4f28419497f9722a3daafe3b4186f6b6457e060405160405180910390a35050565b828054620001b49062000256565b90600052602060002090601f016020900481019282620001d8576000855562000224565b82601f10620001f357805160ff191683800117855562000224565b8280016001018555821562000224579182015b828111156200022357825182559160200191906001019062000206565b5b50905062000233919062000237565b5090565b5b808211156200025257600081600090555060010162000238565b5090565b600060028204905060018216806200026f57607f821691505b602082108114156200028657620002856200028c565b5b50919050565b7f4e487b7100000000000000000000000000000000000000000000000000000000600052602260045260246000fd5b61305e80620002cb6000396000f3fe608060405234801561001057600080fd5b50600436106101165760003560e01c80638da5cb5b116100a2578063a22cb46511610071578063a22cb465146102e1578063b88d4fde146102fd578063c87b56dd14610319578063e985e9c514610349578063f2fde38b1461037957610116565b80638da5cb5b1461025757806395d89b41146102755780639f181b5e14610293578063a05f09fb146102b157610116565b806323b872dd116100e957806323b872dd146101b557806342842e0e146101d15780636352211e146101ed57806370a082311461021d578063715018a61461024d57610116565b806301ffc9a71461011b57806306fdde031461014b578063081812fc14610169578063095ea7b314610199575b600080fd5b61013560048036038101906101309190611fcc565b610395565b6040516101429190612459565b60405180910390f35b610153610477565b6040516101609190612474565b60405180910390f35b610183600480360381019061017e919061205f565b610509565b60405161019091906123f2565b60405180910390f35b6101b360048036038101906101ae9190611f90565b61058e565b005b6101cf60048036038101906101ca9190611e8a565b6106a6565b005b6101eb60048036038101906101e69190611e8a565b610706565b005b6102076004803603810190610202919061205f565b610726565b60405161021491906123f2565b60405180910390f35b61023760048036038101906102329190611e25565b6107d8565b60405161024491906126d6565b60405180910390f35b610255610890565b005b61025f610918565b60405161026c91906123f2565b60405180910390f35b61027d610942565b60405161028a9190612474565b60405180910390f35b61029b6109d4565b6040516102a891906126d6565b60405180910390f35b6102cb60048036038101906102c6919061201e565b6109da565b6040516102d891906126d6565b60405180910390f35b6102fb60048036038101906102f69190611f54565b610a92565b005b61031760048036038101906103129190611ed9565b610aa8565b005b610333600480360381019061032e919061205f565b610b0a565b6040516103409190612474565b60405180910390f35b610363600480360381019061035e9190611e4e565b610c5c565b6040516103709190612459565b60405180910390f35b610393600480360381019061038e9190611e25565b610cf0565b005b60007f80ac58cd000000000000000000000000000000000000000000000000000000007bffffffffffffffffffffffffffffffffffffffffffffffffffffffff1916827bffffffffffffffffffffffffffffffffffffffffffffffffffffffff1916148061046057507f5b5e139f000000000000000000000000000000000000000000000000000000007bffffffffffffffffffffffffffffffffffffffffffffffffffffffff1916827bffffffffffffffffffffffffffffffffffffffffffffffffffffffff1916145b80610470575061046f82610de8565b5b9050919050565b6060600080546104869061292c565b80601f01602080910402602001604051908101604052809291908181526020018280546104b29061292c565b80156104ff5780601f106104d4576101008083540402835291602001916104ff565b820191906000526020600020905b8154815290600101906020018083116104e257829003601f168201915b5050505050905090565b600061051482610e52565b610553576040517f08c379a000000000000000000000000000000000000000000000000000000000815260040161054a90612636565b60405180910390fd5b6004600083815260200190815260200160002060009054906101000a900473ffffffffffffffffffffffffffffffffffffffff169050919050565b600061059982610726565b90508073ffffffffffffffffffffffffffffffffffffffff168373ffffffffffffffffffffffffffffffffffffffff16141561060a576040517f08c379a000000000000000000000000000000000000000000000000000000000815260040161060190612696565b60405180910390fd5b8073ffffffffffffffffffffffffffffffffffffffff16610629610ebe565b73ffffffffffffffffffffffffffffffffffffffff161480610658575061065781610652610ebe565b610c5c565b5b610697576040517f08c379a000000000000000000000000000000000000000000000000000000000815260040161068e90612576565b60405180910390fd5b6106a18383610ec6565b505050565b6106b76106b1610ebe565b82610f7f565b6106f6576040517f08c379a00000000000000000000000000000000000000000000000000000000081526004016106ed906126b6565b60405180910390fd5b61070183838361105d565b505050565b61072183838360405180602001604052806000815250610aa8565b505050565b6000806002600084815260200190815260200160002060009054906101000a900473ffffffffffffffffffffffffffffffffffffffff169050600073ffffffffffffffffffffffffffffffffffffffff168173ffffffffffffffffffffffffffffffffffffffff1614156107cf576040517f08c379a00000000000000000000000000000000000000000000000000000000081526004016107c6906125b6565b60405180910390fd5b80915050919050565b60008073ffffffffffffffffffffffffffffffffffffffff168273ffffffffffffffffffffffffffffffffffffffff161415610849576040517f08c379a000000000000000000000000000000000000000000000000000000000815260040161084090612596565b60405180910390fd5b600360008373ffffffffffffffffffffffffffffffffffffffff1673ffffffffffffffffffffffffffffffffffffffff168152602001908152602001600020549050919050565b610898610ebe565b73ffffffffffffffffffffffffffffffffffffffff166108b6610918565b73ffffffffffffffffffffffffffffffffffffffff161461090c576040517f08c379a000000000000000000000000000000000000000000000000000000000815260040161090390612656565b60405180910390fd5b61091660006112c4565b565b6000600760009054906101000a900473ffffffffffffffffffffffffffffffffffffffff16905090565b6060600180546109519061292c565b80601f016020809104026020016040519081016040528092919081815260200182805461097d9061292c565b80156109ca5780601f1061099f576101008083540402835291602001916109ca565b820191906000526020600020905b8154815290600101906020018083116109ad57829003601f168201915b5050505050905090565b60085481565b60006109e4610ebe565b73ffffffffffffffffffffffffffffffffffffffff16610a02610918565b73ffffffffffffffffffffffffffffffffffffffff1614610a58576040517f08c379a0000000000000000000000000000000000000000000000000000000008152600401610a4f90612656565b60405180910390fd5b60086000815480929190610a6b9061298f565b9190505550610a7c3360085461138a565b610a88600854836113a8565b6008549050919050565b610aa4610a9d610ebe565b838361141c565b5050565b610ab9610ab3610ebe565b83610f7f565b610af8576040517f08c379a0000000000000000000000000000000000000000000000000000000008152600401610aef906126b6565b60405180910390fd5b610b0484848484611589565b50505050565b6060610b1582610e52565b610b54576040517f08c379a0000000000000000000000000000000000000000000000000000000008152600401610b4b90612616565b60405180910390fd5b6000600660008481526020019081526020016000208054610b749061292c565b80601f0160208091040260200160405190810160405280929190818152602001828054610ba09061292c565b8015610bed5780601f10610bc257610100808354040283529160200191610bed565b820191906000526020600020905b815481529060010190602001808311610bd057829003601f168201915b505050505090506000610bfe6115e5565b9050600081511415610c14578192505050610c57565b600082511115610c49578082604051602001610c319291906123ce565b60405160208183030381529060405292505050610c57565b610c52846115fc565b925050505b919050565b6000600560008473ffffffffffffffffffffffffffffffffffffffff1673ffffffffffffffffffffffffffffffffffffffff16815260200190815260200160002060008373ffffffffffffffffffffffffffffffffffffffff1673ffffffffffffffffffffffffffffffffffffffff16815260200190815260200160002060009054906101000a900460ff16905092915050565b610cf8610ebe565b73ffffffffffffffffffffffffffffffffffffffff16610d16610918565b73ffffffffffffffffffffffffffffffffffffffff1614610d6c576040517f08c379a0000000000000000000000000000000000000000000000000000000008152600401610d6390612656565b60405180910390fd5b600073ffffffffffffffffffffffffffffffffffffffff168173ffffffffffffffffffffffffffffffffffffffff161415610ddc576040517f08c379a0000000000000000000000000000000000000000000000000000000008152600401610dd3906124b6565b60405180910390fd5b610de5816112c4565b50565b60007f01ffc9a7000000000000000000000000000000000000000000000000000000007bffffffffffffffffffffffffffffffffffffffffffffffffffffffff1916827bffffffffffffffffffffffffffffffffffffffffffffffffffffffff1916149050919050565b60008073ffffffffffffffffffffffffffffffffffffffff166002600084815260200190815260200160002060009054906101000a900473ffffffffffffffffffffffffffffffffffffffff1673ffffffffffffffffffffffffffffffffffffffff1614159050919050565b600033905090565b816004600083815260200190815260200160002060006101000a81548173ffffffffffffffffffffffffffffffffffffffff021916908373ffffffffffffffffffffffffffffffffffffffff160217905550808273ffffffffffffffffffffffffffffffffffffffff16610f3983610726565b73ffffffffffffffffffffffffffffffffffffffff167f8c5be1e5ebec7d5bd14f71427d1e84f3dd0314c0f7b2291e5b200ac8c7c3b92560405160405180910390a45050565b6000610f8a82610e52565b610fc9576040517f08c379a0000000000000000000000000000000000000000000000000000000008152600401610fc090612556565b60405180910390fd5b6000610fd483610726565b90508073ffffffffffffffffffffffffffffffffffffffff168473ffffffffffffffffffffffffffffffffffffffff16148061101657506110158185610c5c565b5b8061105457508373ffffffffffffffffffffffffffffffffffffffff1661103c84610509565b73ffffffffffffffffffffffffffffffffffffffff16145b91505092915050565b8273ffffffffffffffffffffffffffffffffffffffff1661107d82610726565b73ffffffffffffffffffffffffffffffffffffffff16146110d3576040517f08c379a00000000000000000000000000000000000000000000000000000000081526004016110ca906124d6565b60405180910390fd5b600073ffffffffffffffffffffffffffffffffffffffff168273ffffffffffffffffffffffffffffffffffffffff161415611143576040517f08c379a000000000000000000000000000000000000000000000000000000000815260040161113a90612516565b60405180910390fd5b61114e8383836116a3565b611159600082610ec6565b6001600360008573ffffffffffffffffffffffffffffffffffffffff1673ffffffffffffffffffffffffffffffffffffffff16815260200190815260200160002060008282546111a99190612842565b925050819055506001600360008473ffffffffffffffffffffffffffffffffffffffff1673ffffffffffffffffffffffffffffffffffffffff168152602001908152602001600020600082825461120091906127bb565b92505081905550816002600083815260200190815260200160002060006101000a81548173ffffffffffffffffffffffffffffffffffffffff021916908373ffffffffffffffffffffffffffffffffffffffff160217905550808273ffffffffffffffffffffffffffffffffffffffff168473ffffffffffffffffffffffffffffffffffffffff167fddf252ad1be2c89b69c2b068fc378daa952ba7f163c4a11628f55a4df523b3ef60405160405180910390a46112bf8383836116a8565b505050565b6000600760009054906101000a900473ffffffffffffffffffffffffffffffffffffffff16905081600760006101000a81548173ffffffffffffffffffffffffffffffffffffffff021916908373ffffffffffffffffffffffffffffffffffffffff1602179055508173ffffffffffffffffffffffffffffffffffffffff168173ffffffffffffffffffffffffffffffffffffffff167f8be0079c531659141344cd1fd0a4f28419497f9722a3daafe3b4186f6b6457e060405160405180910390a35050565b6113a48282604051806020016040528060008152506116ad565b5050565b6113b182610e52565b6113f0576040517f08c379a00000000000000000000000000000000000000000000000000000000081526004016113e7906125d6565b60405180910390fd5b80600660008481526020019081526020016000209080519060200190611417929190611c49565b505050565b8173ffffffffffffffffffffffffffffffffffffffff168373ffffffffffffffffffffffffffffffffffffffff16141561148b576040517f08c379a000000000000000000000000000000000000000000000000000000000815260040161148290612536565b60405180910390fd5b80600560008573ffffffffffffffffffffffffffffffffffffffff1673ffffffffffffffffffffffffffffffffffffffff16815260200190815260200160002060008473ffffffffffffffffffffffffffffffffffffffff1673ffffffffffffffffffffffffffffffffffffffff16815260200190815260200160002060006101000a81548160ff0219169083151502179055508173ffffffffffffffffffffffffffffffffffffffff168373ffffffffffffffffffffffffffffffffffffffff167f17307eab39ab6107e8899845ad3d59bd9653f200f220920489ca2b5937696c318360405161157c9190612459565b60405180910390a3505050565b61159484848461105d565b6115a084848484611708565b6115df576040517f08c379a00000000000000000000000000000000000000000000000000000000081526004016115d690612496565b60405180910390fd5b50505050565b606060405180602001604052806000815250905090565b606061160782610e52565b611646576040517f08c379a000000000000000000000000000000000000000000000000000000000815260040161163d90612676565b60405180910390fd5b60006116506115e5565b90506000815111611670576040518060200160405280600081525061169b565b8061167a8461189f565b60405160200161168b9291906123ce565b6040516020818303038152906040525b915050919050565b505050565b505050565b6116b78383611a4c565b6116c46000848484611708565b611703576040517f08c379a00000000000000000000000000000000000000000000000000000000081526004016116fa90612496565b60405180910390fd5b505050565b60006117298473ffffffffffffffffffffffffffffffffffffffff16611c26565b15611892578373ffffffffffffffffffffffffffffffffffffffff1663150b7a02611752610ebe565b8786866040518563ffffffff1660e01b8152600401611774949392919061240d565b602060405180830381600087803b15801561178e57600080fd5b505af19250505080156117bf57506040513d601f19601f820116820180604052508101906117bc9190611ff5565b60015b611842573d80600081146117ef576040519150601f19603f3d011682016040523d82523d6000602084013e6117f4565b606091505b5060008151141561183a576040517f08c379a000000000000000000000000000000000000000000000000000000000815260040161183190612496565b60405180910390fd5b805181602001fd5b63150b7a0260e01b7bffffffffffffffffffffffffffffffffffffffffffffffffffffffff1916817bffffffffffffffffffffffffffffffffffffffffffffffffffffffff191614915050611897565b600190505b949350505050565b606060008214156118e7576040518060400160405280600181526020017f30000000000000000000000000000000000000000000000000000000000000008152509050611a47565b600082905060005b600082146119195780806119029061298f565b915050600a826119129190612811565b91506118ef565b60008167ffffffffffffffff81111561195b577f4e487b7100000000000000000000000000000000000000000000000000000000600052604160045260246000fd5b6040519080825280601f01601f19166020018201604052801561198d5781602001600182028036833780820191505090505b5090505b60008514611a40576001826119a69190612842565b9150600a856119b591906129d8565b60306119c191906127bb565b60f81b8183815181106119fd577f4e487b7100000000000000000000000000000000000000000000000000000000600052603260045260246000fd5b60200101907effffffffffffffffffffffffffffffffffffffffffffffffffffffffffffff1916908160001a905350600a85611a399190612811565b9450611991565b8093505050505b919050565b600073ffffffffffffffffffffffffffffffffffffffff168273ffffffffffffffffffffffffffffffffffffffff161415611abc576040517f08c379a0000000000000000000000000000000000000000000000000000000008152600401611ab3906125f6565b60405180910390fd5b611ac581610e52565b15611b05576040517f08c379a0000000000000000000000000000000000000000000000000000000008152600401611afc906124f6565b60405180910390fd5b611b11600083836116a3565b6001600360008473ffffffffffffffffffffffffffffffffffffffff1673ffffffffffffffffffffffffffffffffffffffff1681526020019081526020016000206000828254611b6191906127bb565b92505081905550816002600083815260200190815260200160002060006101000a81548173ffffffffffffffffffffffffffffffffffffffff021916908373ffffffffffffffffffffffffffffffffffffffff160217905550808273ffffffffffffffffffffffffffffffffffffffff16600073ffffffffffffffffffffffffffffffffffffffff167fddf252ad1be2c89b69c2b068fc378daa952ba7f163c4a11628f55a4df523b3ef60405160405180910390a4611c22600083836116a8565b5050565b6000808273ffffffffffffffffffffffffffffffffffffffff163b119050919050565b828054611c559061292c565b90600052602060002090601f016020900481019282611c775760008555611cbe565b82601f10611c9057805160ff1916838001178555611cbe565b82800160010185558215611cbe579182015b82811115611cbd578251825591602001919060010190611ca2565b5b509050611ccb9190611ccf565b5090565b5b80821115611ce8576000816000905550600101611cd0565b5090565b6000611cff611cfa84612716565b6126f1565b905082815260208101848484011115611d1757600080fd5b611d228482856128ea565b509392505050565b6000611d3d611d3884612747565b6126f1565b905082815260208101848484011115611d5557600080fd5b611d608482856128ea565b509392505050565b600081359050611d7781612fcc565b92915050565b600081359050611d8c81612fe3565b92915050565b600081359050611da181612ffa565b92915050565b600081519050611db681612ffa565b92915050565b600082601f830112611dcd57600080fd5b8135611ddd848260208601611cec565b91505092915050565b600082601f830112611df757600080fd5b8135611e07848260208601611d2a565b91505092915050565b600081359050611e1f81613011565b92915050565b600060208284031215611e3757600080fd5b6000611e4584828501611d68565b91505092915050565b60008060408385031215611e6157600080fd5b6000611e6f85828601611d68565b9250506020611e8085828601611d68565b9150509250929050565b600080600060608486031215611e9f57600080fd5b6000611ead86828701611d68565b9350506020611ebe86828701611d68565b9250506040611ecf86828701611e10565b9150509250925092565b60008060008060808587031215611eef57600080fd5b6000611efd87828801611d68565b9450506020611f0e87828801611d68565b9350506040611f1f87828801611e10565b925050606085013567ffffffffffffffff811115611f3c57600080fd5b611f4887828801611dbc565b91505092959194509250565b60008060408385031215611f6757600080fd5b6000611f7585828601611d68565b9250506020611f8685828601611d7d565b9150509250929050565b60008060408385031215611fa357600080fd5b6000611fb185828601611d68565b9250506020611fc285828601611e10565b9150509250929050565b600060208284031215611fde57600080fd5b6000611fec84828501611d92565b91505092915050565b60006020828403121561200757600080fd5b600061201584828501611da7565b91505092915050565b60006020828403121561203057600080fd5b600082013567ffffffffffffffff81111561204a57600080fd5b61205684828501611de6565b91505092915050565b60006020828403121561207157600080fd5b600061207f84828501611e10565b91505092915050565b61209181612876565b82525050565b6120a081612888565b82525050565b60006120b182612778565b6120bb818561278e565b93506120cb8185602086016128f9565b6120d481612ac5565b840191505092915050565b60006120ea82612783565b6120f4818561279f565b93506121048185602086016128f9565b61210d81612ac5565b840191505092915050565b600061212382612783565b61212d81856127b0565b935061213d8185602086016128f9565b80840191505092915050565b600061215660328361279f565b915061216182612ad6565b604082019050919050565b600061217960268361279f565b915061218482612b25565b604082019050919050565b600061219c60258361279f565b91506121a782612b74565b604082019050919050565b60006121bf601c8361279f565b91506121ca82612bc3565b602082019050919050565b60006121e260248361279f565b91506121ed82612bec565b604082019050919050565b600061220560198361279f565b915061221082612c3b565b602082019050919050565b6000612228602c8361279f565b915061223382612c64565b604082019050919050565b600061224b60388361279f565b915061225682612cb3565b604082019050919050565b600061226e602a8361279f565b915061227982612d02565b604082019050919050565b600061229160298361279f565b915061229c82612d51565b604082019050919050565b60006122b4602e8361279f565b91506122bf82612da0565b604082019050919050565b60006122d760208361279f565b91506122e282612def565b602082019050919050565b60006122fa60318361279f565b915061230582612e18565b604082019050919050565b600061231d602c8361279f565b915061232882612e67565b604082019050919050565b600061234060208361279f565b915061234b82612eb6565b602082019050919050565b6000612363602f8361279f565b915061236e82612edf565b604082019050919050565b600061238660218361279f565b915061239182612f2e565b604082019050919050565b60006123a960318361279f565b91506123b482612f7d565b604082019050919050565b6123c8816128e0565b82525050565b60006123da8285612118565b91506123e68284612118565b91508190509392505050565b60006020820190506124076000830184612088565b92915050565b60006080820190506124226000830187612088565b61242f6020830186612088565b61243c60408301856123bf565b818103606083015261244e81846120a6565b905095945050505050565b600060208201905061246e6000830184612097565b92915050565b6000602082019050818103600083015261248e81846120df565b905092915050565b600060208201905081810360008301526124af81612149565b9050919050565b600060208201905081810360008301526124cf8161216c565b9050919050565b600060208201905081810360008301526124ef8161218f565b9050919050565b6000602082019050818103600083015261250f816121b2565b9050919050565b6000602082019050818103600083015261252f816121d5565b9050919050565b6000602082019050818103600083015261254f816121f8565b9050919050565b6000602082019050818103600083015261256f8161221b565b9050919050565b6000602082019050818103600083015261258f8161223e565b9050919050565b600060208201905081810360008301526125af81612261565b9050919050565b600060208201905081810360008301526125cf81612284565b9050919050565b600060208201905081810360008301526125ef816122a7565b9050919050565b6000602082019050818103600083015261260f816122ca565b9050919050565b6000602082019050818103600083015261262f816122ed565b9050919050565b6000602082019050818103600083015261264f81612310565b9050919050565b6000602082019050818103600083015261266f81612333565b9050919050565b6000602082019050818103600083015261268f81612356565b9050919050565b600060208201905081810360008301526126af81612379565b9050919050565b600060208201905081810360008301526126cf8161239c565b9050919050565b60006020820190506126eb60008301846123bf565b92915050565b60006126fb61270c565b9050612707828261295e565b919050565b6000604051905090565b600067ffffffffffffffff82111561273157612730612a96565b5b61273a82612ac5565b9050602081019050919050565b600067ffffffffffffffff82111561276257612761612a96565b5b61276b82612ac5565b9050602081019050919050565b600081519050919050565b600081519050919050565b600082825260208201905092915050565b600082825260208201905092915050565b600081905092915050565b60006127c6826128e0565b91506127d1836128e0565b9250827fffffffffffffffffffffffffffffffffffffffffffffffffffffffffffffffff0382111561280657612805612a09565b5b828201905092915050565b600061281c826128e0565b9150612827836128e0565b92508261283757612836612a38565b5b828204905092915050565b600061284d826128e0565b9150612858836128e0565b92508282101561286b5761286a612a09565b5b828203905092915050565b6000612881826128c0565b9050919050565b60008115159050919050565b60007fffffffff0000000000000000000000000000000000000000000000000000000082169050919050565b600073ffffffffffffffffffffffffffffffffffffffff82169050919050565b6000819050919050565b82818337600083830152505050565b60005b838110156129175780820151818401526020810190506128fc565b83811115612926576000848401525b50505050565b6000600282049050600182168061294457607f821691505b6020821081141561295857612957612a67565b5b50919050565b61296782612ac5565b810181811067ffffffffffffffff8211171561298657612985612a96565b5b80604052505050565b600061299a826128e0565b91507fffffffffffffffffffffffffffffffffffffffffffffffffffffffffffffffff8214156129cd576129cc612a09565b5b600182019050919050565b60006129e3826128e0565b91506129ee836128e0565b9250826129fe576129fd612a38565b5b828206905092915050565b7f4e487b7100000000000000000000000000000000000000000000000000000000600052601160045260246000fd5b7f4e487b7100000000000000000000000000000000000000000000000000000000600052601260045260246000fd5b7f4e487b7100000000000000000000000000000000000000000000000000000000600052602260045260246000fd5b7f4e487b7100000000000000000000000000000000000000000000000000000000600052604160045260246000fd5b6000601f19601f8301169050919050565b7f4552433732313a207472616e7366657220746f206e6f6e20455243373231526560008201527f63656976657220696d706c656d656e7465720000000000000000000000000000602082015250565b7f4f776e61626c653a206e6577206f776e657220697320746865207a65726f206160008201527f6464726573730000000000000000000000000000000000000000000000000000602082015250565b7f4552433732313a207472616e736665722066726f6d20696e636f72726563742060008201527f6f776e6572000000000000000000000000000000000000000000000000000000602082015250565b7f4552433732313a20746f6b656e20616c7265616479206d696e74656400000000600082015250565b7f4552433732313a207472616e7366657220746f20746865207a65726f2061646460008201527f7265737300000000000000000000000000000000000000000000000000000000602082015250565b7f4552433732313a20617070726f766520746f2063616c6c657200000000000000600082015250565b7f4552433732313a206f70657261746f7220717565727920666f72206e6f6e657860008201527f697374656e7420746f6b656e0000000000000000000000000000000000000000602082015250565b7f4552433732313a20617070726f76652063616c6c6572206973206e6f74206f7760008201527f6e6572206e6f7220617070726f76656420666f7220616c6c0000000000000000602082015250565b7f4552433732313a2062616c616e636520717565727920666f7220746865207a6560008201527f726f206164647265737300000000000000000000000000000000000000000000602082015250565b7f4552433732313a206f776e657220717565727920666f72206e6f6e657869737460008201527f656e7420746f6b656e0000000000000000000000000000000000000000000000602082015250565b7f45524337323155524953746f726167653a2055524920736574206f66206e6f6e60008201527f6578697374656e7420746f6b656e000000000000000000000000000000000000602082015250565b7f4552433732313a206d696e7420746f20746865207a65726f2061646472657373600082015250565b7f45524337323155524953746f726167653a2055524920717565727920666f722060008201527f6e6f6e6578697374656e7420746f6b656e000000000000000000000000000000602082015250565b7f4552433732313a20617070726f76656420717565727920666f72206e6f6e657860008201527f697374656e7420746f6b656e0000000000000000000000000000000000000000602082015250565b7f4f776e61626c653a2063616c6c6572206973206e6f7420746865206f776e6572600082015250565b7f4552433732314d657461646174613a2055524920717565727920666f72206e6f60008201527f6e6578697374656e7420746f6b656e0000000000000000000000000000000000602082015250565b7f4552433732313a20617070726f76616c20746f2063757272656e74206f776e6560008201527f7200000000000000000000000000000000000000000000000000000000000000602082015250565b7f4552433732313a207472616e736665722063616c6c6572206973206e6f74206f60008201527f776e6572206e6f7220617070726f766564000000000000000000000000000000602082015250565b612fd581612876565b8114612fe057600080fd5b50565b612fec81612888565b8114612ff757600080fd5b50565b61300381612894565b811461300e57600080fd5b50565b61301a816128e0565b811461302557600080fd5b5056fea2646970667358221220251bc958979cef2744eb56c2acee2a359a929dd2dc334f4ffb202b766612a90464736f6c63430008040033",
  "linkReferences": {},
  "deployedLinkReferences": {}
}