{
  "_format": "hh-sol-artifact-1",
  "contractName": "Marketplace",
  "sourceName": "contracts/Marketplace.sol",
  "abi": [
    {
      "anonymous": false,
      "inputs": [
        {
          "indexed": true,
          "internalType": "address",
          "name": "owner",
          "type": "address"
        },
        {
          "indexed": true,
          "internalType": "address",
          "name": "approved",
          "type": "address"
        },
        {
          "indexed": true,
          "internalType": "uint256",
          "name": "tokenId",
          "type": "uint256"
        }
      ],
      "name": "Approval",
      "type": "event"
    },
    {
      "anonymous": false,
      "inputs": [
        {
          "indexed": true,
          "internalType": "address",
          "name": "owner",
          "type": "address"
        },
        {
          "indexed": true,
          "internalType": "address",
          "name": "operator",
          "type": "address"
        },
        {
          "indexed": false,
          "internalType": "bool",
          "name": "approved",
          "type": "bool"
        }
      ],
      "name": "ApprovalForAll",
      "type": "event"
    },
    {
      "anonymous": false,
      "inputs": [
        {
          "indexed": false,
          "internalType": "uint256",
          "name": "itemId",
          "type": "uint256"
        },
        {
          "indexed": true,
          "internalType": "address",
          "name": "nft",
          "type": "address"
        },
        {
          "indexed": false,
          "internalType": "uint256",
          "name": "tokenId",
          "type": "uint256"
        },
        {
          "indexed": false,
          "internalType": "uint256",
          "name": "price",
          "type": "uint256"
        },
        {
          "indexed": true,
          "internalType": "address",
          "name": "seller",
          "type": "address"
        },
        {
          "indexed": true,
          "internalType": "address",
          "name": "buyer",
          "type": "address"
        }
      ],
      "name": "Bought",
      "type": "event"
    },
    {
      "anonymous": false,
      "inputs": [
        {
          "indexed": false,
          "internalType": "uint256",
          "name": "itemId",
          "type": "uint256"
        },
        {
          "indexed": true,
          "internalType": "address",
          "name": "nft",
          "type": "address"
        },
        {
          "indexed": false,
          "internalType": "uint256",
          "name": "tokenId",
          "type": "uint256"
        },
        {
          "indexed": false,
          "internalType": "uint256",
          "name": "price",
          "type": "uint256"
        },
        {
          "indexed": true,
          "internalType": "address",
          "name": "seller",
          "type": "address"
        }
      ],
      "name": "Offered",
      "type": "event"
    },
    {
      "anonymous": false,
      "inputs": [
        {
          "indexed": true,
          "internalType": "address",
          "name": "previousOwner",
          "type": "address"
        },
        {
          "indexed": true,
          "internalType": "address",
          "name": "newOwner",
          "type": "address"
        }
      ],
      "name": "OwnershipTransferred",
      "type": "event"
    },
    {
      "anonymous": false,
      "inputs": [
        {
          "indexed": true,
          "internalType": "address",
          "name": "from",
          "type": "address"
        },
        {
          "indexed": true,
          "internalType": "address",
          "name": "to",
          "type": "address"
        },
        {
          "indexed": true,
          "internalType": "uint256",
          "name": "tokenId",
          "type": "uint256"
        }
      ],
      "name": "Transfer",
      "type": "event"
    },
    {
      "inputs": [
        {
          "internalType": "address",
          "name": "to",
          "type": "address"
        },
        {
          "internalType": "uint256",
          "name": "tokenId",
          "type": "uint256"
        }
      ],
      "name": "approve",
      "outputs": [],
      "stateMutability": "nonpayable",
      "type": "function"
    },
    {
      "inputs": [
        {
          "internalType": "address",
          "name": "owner",
          "type": "address"
        }
      ],
      "name": "balanceOf",
      "outputs": [
        {
          "internalType": "uint256",
          "name": "",
          "type": "uint256"
        }
      ],
      "stateMutability": "view",
      "type": "function"
    },
    {
      "inputs": [
        {
          "internalType": "string",
          "name": "tokenURI",
          "type": "string"
        }
      ],
      "name": "createGlobeArtNFT",
      "outputs": [
        {
          "internalType": "uint256",
          "name": "",
          "type": "uint256"
        }
      ],
      "stateMutability": "nonpayable",
      "type": "function"
    },
    {
      "inputs": [
        {
          "internalType": "uint256",
          "name": "tokenId",
          "type": "uint256"
        }
      ],
      "name": "getApproved",
      "outputs": [
        {
          "internalType": "address",
          "name": "",
          "type": "address"
        }
      ],
      "stateMutability": "view",
      "type": "function"
    },
    {
      "inputs": [
        {
          "internalType": "uint256",
          "name": "_itemId",
          "type": "uint256"
        }
      ],
      "name": "getPrice",
      "outputs": [
        {
          "internalType": "uint256",
          "name": "",
          "type": "uint256"
        }
      ],
      "stateMutability": "view",
      "type": "function"
    },
    {
      "inputs": [
        {
          "internalType": "address",
          "name": "owner",
          "type": "address"
        },
        {
          "internalType": "address",
          "name": "operator",
          "type": "address"
        }
      ],
      "name": "isApprovedForAll",
      "outputs": [
        {
          "internalType": "bool",
          "name": "",
          "type": "bool"
        }
      ],
      "stateMutability": "view",
      "type": "function"
    },
    {
      "inputs": [],
      "name": "itemCount",
      "outputs": [
        {
          "internalType": "uint256",
          "name": "",
          "type": "uint256"
        }
      ],
      "stateMutability": "view",
      "type": "function"
    },
    {
      "inputs": [
        {
          "internalType": "uint256",
          "name": "",
          "type": "uint256"
        }
      ],
      "name": "items",
      "outputs": [
        {
          "internalType": "uint256",
          "name": "itemId",
          "type": "uint256"
        },
        {
          "internalType": "contract IERC721",
          "name": "nft",
          "type": "address"
        },
        {
          "internalType": "uint256",
          "name": "tokenId",
          "type": "uint256"
        },
        {
          "internalType": "string",
          "name": "collection",
          "type": "string"
        },
        {
          "internalType": "uint256",
          "name": "price",
          "type": "uint256"
        },
        {
          "internalType": "address payable",
          "name": "seller",
          "type": "address"
        },
        {
          "internalType": "bool",
          "name": "sold",
          "type": "bool"
        }
      ],
      "stateMutability": "view",
      "type": "function"
    },
    {
      "inputs": [
        {
          "internalType": "contract IERC721",
          "name": "_nft",
          "type": "address"
        },
        {
          "internalType": "uint256",
          "name": "_tokenId",
          "type": "uint256"
        },
        {
          "internalType": "string",
          "name": "_collection",
          "type": "string"
        },
        {
          "internalType": "uint256",
          "name": "_price",
          "type": "uint256"
        }
      ],
      "name": "makeItem",
      "outputs": [],
      "stateMutability": "nonpayable",
      "type": "function"
    },
    {
      "inputs": [],
      "name": "name",
      "outputs": [
        {
          "internalType": "string",
          "name": "",
          "type": "string"
        }
      ],
      "stateMutability": "view",
      "type": "function"
    },
    {
      "inputs": [],
      "name": "owner",
      "outputs": [
        {
          "internalType": "address",
          "name": "",
          "type": "address"
        }
      ],
      "stateMutability": "view",
      "type": "function"
    },
    {
      "inputs": [
        {
          "internalType": "uint256",
          "name": "tokenId",
          "type": "uint256"
        }
      ],
      "name": "ownerOf",
      "outputs": [
        {
          "internalType": "address",
          "name": "",
          "type": "address"
        }
      ],
      "stateMutability": "view",
      "type": "function"
    },
    {
      "inputs": [
        {
          "internalType": "uint256",
          "name": "_itemId",
          "type": "uint256"
        }
      ],
      "name": "purchaseItem",
      "outputs": [],
      "stateMutability": "payable",
      "type": "function"
    },
    {
      "inputs": [],
      "name": "renounceOwnership",
      "outputs": [],
      "stateMutability": "nonpayable",
      "type": "function"
    },
    {
      "inputs": [
        {
          "internalType": "address",
          "name": "from",
          "type": "address"
        },
        {
          "internalType": "address",
          "name": "to",
          "type": "address"
        },
        {
          "internalType": "uint256",
          "name": "tokenId",
          "type": "uint256"
        }
      ],
      "name": "safeTransferFrom",
      "outputs": [],
      "stateMutability": "nonpayable",
      "type": "function"
    },
    {
      "inputs": [
        {
          "internalType": "address",
          "name": "from",
          "type": "address"
        },
        {
          "internalType": "address",
          "name": "to",
          "type": "address"
        },
        {
          "internalType": "uint256",
          "name": "tokenId",
          "type": "uint256"
        },
        {
          "internalType": "bytes",
          "name": "_data",
          "type": "bytes"
        }
      ],
      "name": "safeTransferFrom",
      "outputs": [],
      "stateMutability": "nonpayable",
      "type": "function"
    },
    {
      "inputs": [
        {
          "internalType": "address",
          "name": "operator",
          "type": "address"
        },
        {
          "internalType": "bool",
          "name": "approved",
          "type": "bool"
        }
      ],
      "name": "setApprovalForAll",
      "outputs": [],
      "stateMutability": "nonpayable",
      "type": "function"
    },
    {
      "inputs": [
        {
          "internalType": "bytes4",
          "name": "interfaceId",
          "type": "bytes4"
        }
      ],
      "name": "supportsInterface",
      "outputs": [
        {
          "internalType": "bool",
          "name": "",
          "type": "bool"
        }
      ],
      "stateMutability": "view",
      "type": "function"
    },
    {
      "inputs": [],
      "name": "symbol",
      "outputs": [
        {
          "internalType": "string",
          "name": "",
          "type": "string"
        }
      ],
      "stateMutability": "view",
      "type": "function"
    },
    {
      "inputs": [],
      "name": "tokenCount",
      "outputs": [
        {
          "internalType": "uint256",
          "name": "",
          "type": "uint256"
        }
      ],
      "stateMutability": "view",
      "type": "function"
    },
    {
      "inputs": [
        {
          "internalType": "uint256",
          "name": "tokenId",
          "type": "uint256"
        }
      ],
      "name": "tokenURI",
      "outputs": [
        {
          "internalType": "string",
          "name": "",
          "type": "string"
        }
      ],
      "stateMutability": "view",
      "type": "function"
    },
    {
      "inputs": [
        {
          "internalType": "address",
          "name": "from",
          "type": "address"
        },
        {
          "internalType": "address",
          "name": "to",
          "type": "address"
        },
        {
          "internalType": "uint256",
          "name": "tokenId",
          "type": "uint256"
        }
      ],
      "name": "transferFrom",
      "outputs": [],
      "stateMutability": "nonpayable",
      "type": "function"
    },
    {
      "inputs": [
        {
          "internalType": "address",
          "name": "newOwner",
          "type": "address"
        }
      ],
      "name": "transferOwnership",
      "outputs": [],
      "stateMutability": "nonpayable",
      "type": "function"
    }
  ],
  "bytecode": "0x60806040523480156200001157600080fd5b506040518060400160405280600b81526020017f676c6f62654172744e46540000000000000000000000000000000000000000008152506040518060400160405280600581526020017f47414e4654000000000000000000000000000000000000000000000000000000815250600160008190555081600190805190602001906200009e929190620001ae565b508060029080519060200190620000b7929190620001ae565b505050620000da620000ce620000e060201b60201c565b620000e860201b60201c565b620002c3565b600033905090565b6000600860009054906101000a900473ffffffffffffffffffffffffffffffffffffffff16905081600860006101000a81548173ffffffffffffffffffffffffffffffffffffffff021916908373ffffffffffffffffffffffffffffffffffffffff1602179055508173ffffffffffffffffffffffffffffffffffffffff168173ffffffffffffffffffffffffffffffffffffffff167f8be0079c531659141344cd1fd0a4f28419497f9722a3daafe3b4186f6b6457e060405160405180910390a35050565b828054620001bc906200025e565b90600052602060002090601f016020900481019282620001e057600085556200022c565b82601f10620001fb57805160ff19168380011785556200022c565b828001600101855582156200022c579182015b828111156200022b5782518255916020019190600101906200020e565b5b5090506200023b91906200023f565b5090565b5b808211156200025a57600081600090555060010162000240565b5090565b600060028204905060018216806200027757607f821691505b602082108114156200028e576200028d62000294565b5b50919050565b7f4e487b7100000000000000000000000000000000000000000000000000000000600052602260045260246000fd5b613e3c80620002d36000396000f3fe6080604052600436106101405760003560e01c80638da5cb5b116100b6578063bfb231d21161006f578063bfb231d21461045a578063c87b56dd1461049d578063d38ea5bf146104da578063e7572230146104f6578063e985e9c514610533578063f2fde38b1461057057610140565b80638da5cb5b1461034a57806395d89b41146103755780639f181b5e146103a0578063a05f09fb146103cb578063a22cb46514610408578063b88d4fde1461043157610140565b80633c28368c116101085780633c28368c1461023c57806342842e0e146102655780636352211e1461028e5780636bfb0d01146102cb57806370a08231146102f6578063715018a61461033357610140565b806301ffc9a71461014557806306fdde0314610182578063081812fc146101ad578063095ea7b3146101ea57806323b872dd14610213575b600080fd5b34801561015157600080fd5b5061016c6004803603810190610167919061298c565b610599565b6040516101799190612f98565b60405180910390f35b34801561018e57600080fd5b5061019761067b565b6040516101a49190612fb3565b60405180910390f35b3480156101b957600080fd5b506101d460048036038101906101cf9190612a9a565b61070d565b6040516101e19190612efa565b60405180910390f35b3480156101f657600080fd5b50610211600480360381019061020c9190612950565b610792565b005b34801561021f57600080fd5b5061023a6004803603810190610235919061284a565b6108aa565b005b34801561024857600080fd5b50610263600480360381019061025e91906129de565b61090a565b005b34801561027157600080fd5b5061028c6004803603810190610287919061284a565b610c26565b005b34801561029a57600080fd5b506102b560048036038101906102b09190612a9a565b610c46565b6040516102c29190612efa565b60405180910390f35b3480156102d757600080fd5b506102e0610cf8565b6040516102ed91906132b5565b60405180910390f35b34801561030257600080fd5b5061031d600480360381019061031891906127e5565b610cfe565b60405161032a91906132b5565b60405180910390f35b34801561033f57600080fd5b50610348610db6565b005b34801561035657600080fd5b5061035f610e3e565b60405161036c9190612efa565b60405180910390f35b34801561038157600080fd5b5061038a610e68565b6040516103979190612fb3565b60405180910390f35b3480156103ac57600080fd5b506103b5610efa565b6040516103c291906132b5565b60405180910390f35b3480156103d757600080fd5b506103f260048036038101906103ed9190612a59565b610f00565b6040516103ff91906132b5565b60405180910390f35b34801561041457600080fd5b5061042f600480360381019061042a9190612914565b610fb8565b005b34801561043d57600080fd5b5061045860048036038101906104539190612899565b610fce565b005b34801561046657600080fd5b50610481600480360381019061047c9190612a9a565b611030565b60405161049497969594939291906132d0565b60405180910390f35b3480156104a957600080fd5b506104c460048036038101906104bf9190612a9a565b611147565b6040516104d19190612fb3565b60405180910390f35b6104f460048036038101906104ef9190612a9a565b611299565b005b34801561050257600080fd5b5061051d60048036038101906105189190612a9a565b6115e7565b60405161052a91906132b5565b60405180910390f35b34801561053f57600080fd5b5061055a6004803603810190610555919061280e565b611607565b6040516105679190612f98565b60405180910390f35b34801561057c57600080fd5b50610597600480360381019061059291906127e5565b61169b565b005b60007f80ac58cd000000000000000000000000000000000000000000000000000000007bffffffffffffffffffffffffffffffffffffffffffffffffffffffff1916827bffffffffffffffffffffffffffffffffffffffffffffffffffffffff1916148061066457507f5b5e139f000000000000000000000000000000000000000000000000000000007bffffffffffffffffffffffffffffffffffffffffffffffffffffffff1916827bffffffffffffffffffffffffffffffffffffffffffffffffffffffff1916145b80610674575061067382611793565b5b9050919050565b60606001805461068a90613600565b80601f01602080910402602001604051908101604052809291908181526020018280546106b690613600565b80156107035780601f106106d857610100808354040283529160200191610703565b820191906000526020600020905b8154815290600101906020018083116106e657829003601f168201915b5050505050905090565b6000610718826117fd565b610757576040517f08c379a000000000000000000000000000000000000000000000000000000000815260040161074e906131f5565b60405180910390fd5b6005600083815260200190815260200160002060009054906101000a900473ffffffffffffffffffffffffffffffffffffffff169050919050565b600061079d82610c46565b90508073ffffffffffffffffffffffffffffffffffffffff168373ffffffffffffffffffffffffffffffffffffffff16141561080e576040517f08c379a000000000000000000000000000000000000000000000000000000000815260040161080590613255565b60405180910390fd5b8073ffffffffffffffffffffffffffffffffffffffff1661082d611869565b73ffffffffffffffffffffffffffffffffffffffff16148061085c575061085b81610856611869565b611607565b5b61089b576040517f08c379a000000000000000000000000000000000000000000000000000000000815260040161089290613135565b60405180910390fd5b6108a58383611871565b505050565b6108bb6108b5611869565b8261192a565b6108fa576040517f08c379a00000000000000000000000000000000000000000000000000000000081526004016108f190613275565b60405180910390fd5b610905838383611a08565b505050565b610912611869565b73ffffffffffffffffffffffffffffffffffffffff16610930610e3e565b73ffffffffffffffffffffffffffffffffffffffff1614610986576040517f08c379a000000000000000000000000000000000000000000000000000000000815260040161097d90613215565b60405180910390fd5b600081116109c9576040517f08c379a00000000000000000000000000000000000000000000000000000000081526004016109c090613015565b60405180910390fd5b600a60008154809291906109dc90613663565b91905055508373ffffffffffffffffffffffffffffffffffffffff166323b872dd3330866040518463ffffffff1660e01b8152600401610a1e93929190612f15565b600060405180830381600087803b158015610a3857600080fd5b505af1158015610a4c573d6000803e3d6000fd5b505050506040518060e00160405280600a5481526020018573ffffffffffffffffffffffffffffffffffffffff1681526020018481526020018381526020018281526020013373ffffffffffffffffffffffffffffffffffffffff16815260200160001515815250600b6000600a5481526020019081526020016000206000820151816000015560208201518160010160006101000a81548173ffffffffffffffffffffffffffffffffffffffff021916908373ffffffffffffffffffffffffffffffffffffffff160217905550604082015181600201556060820151816003019080519060200190610b409291906125f4565b506080820151816004015560a08201518160050160006101000a81548173ffffffffffffffffffffffffffffffffffffffff021916908373ffffffffffffffffffffffffffffffffffffffff16021790555060c08201518160050160146101000a81548160ff0219169083151502179055509050503373ffffffffffffffffffffffffffffffffffffffff168473ffffffffffffffffffffffffffffffffffffffff167f655a0cf9c8db81512be9a76dc1c5ae5380b8816ce6ad659cd61b715e2999d59a600a548685604051610c1893929190613346565b60405180910390a350505050565b610c4183838360405180602001604052806000815250610fce565b505050565b6000806003600084815260200190815260200160002060009054906101000a900473ffffffffffffffffffffffffffffffffffffffff169050600073ffffffffffffffffffffffffffffffffffffffff168173ffffffffffffffffffffffffffffffffffffffff161415610cef576040517f08c379a0000000000000000000000000000000000000000000000000000000008152600401610ce690613175565b60405180910390fd5b80915050919050565b600a5481565b60008073ffffffffffffffffffffffffffffffffffffffff168273ffffffffffffffffffffffffffffffffffffffff161415610d6f576040517f08c379a0000000000000000000000000000000000000000000000000000000008152600401610d6690613155565b60405180910390fd5b600460008373ffffffffffffffffffffffffffffffffffffffff1673ffffffffffffffffffffffffffffffffffffffff168152602001908152602001600020549050919050565b610dbe611869565b73ffffffffffffffffffffffffffffffffffffffff16610ddc610e3e565b73ffffffffffffffffffffffffffffffffffffffff1614610e32576040517f08c379a0000000000000000000000000000000000000000000000000000000008152600401610e2990613215565b60405180910390fd5b610e3c6000611c6f565b565b6000600860009054906101000a900473ffffffffffffffffffffffffffffffffffffffff16905090565b606060028054610e7790613600565b80601f0160208091040260200160405190810160405280929190818152602001828054610ea390613600565b8015610ef05780601f10610ec557610100808354040283529160200191610ef0565b820191906000526020600020905b815481529060010190602001808311610ed357829003601f168201915b5050505050905090565b60095481565b6000610f0a611869565b73ffffffffffffffffffffffffffffffffffffffff16610f28610e3e565b73ffffffffffffffffffffffffffffffffffffffff1614610f7e576040517f08c379a0000000000000000000000000000000000000000000000000000000008152600401610f7590613215565b60405180910390fd5b60096000815480929190610f9190613663565b9190505550610fa233600954611d35565b610fae60095483611d53565b6009549050919050565b610fca610fc3611869565b8383611dc7565b5050565b610fdf610fd9611869565b8361192a565b61101e576040517f08c379a000000000000000000000000000000000000000000000000000000000815260040161101590613275565b60405180910390fd5b61102a84848484611f34565b50505050565b600b6020528060005260406000206000915090508060000154908060010160009054906101000a900473ffffffffffffffffffffffffffffffffffffffff169080600201549080600301805461108590613600565b80601f01602080910402602001604051908101604052809291908181526020018280546110b190613600565b80156110fe5780601f106110d3576101008083540402835291602001916110fe565b820191906000526020600020905b8154815290600101906020018083116110e157829003601f168201915b5050505050908060040154908060050160009054906101000a900473ffffffffffffffffffffffffffffffffffffffff16908060050160149054906101000a900460ff16905087565b6060611152826117fd565b611191576040517f08c379a0000000000000000000000000000000000000000000000000000000008152600401611188906131d5565b60405180910390fd5b60006007600084815260200190815260200160002080546111b190613600565b80601f01602080910402602001604051908101604052809291908181526020018280546111dd90613600565b801561122a5780601f106111ff5761010080835404028352916020019161122a565b820191906000526020600020905b81548152906001019060200180831161120d57829003601f168201915b50505050509050600061123b611f90565b9050600081511415611251578192505050611294565b60008251111561128657808260405160200161126e929190612ed6565b60405160208183030381529060405292505050611294565b61128f84611fa7565b925050505b919050565b600260005414156112df576040517f08c379a00000000000000000000000000000000000000000000000000000000081526004016112d690613295565b60405180910390fd5b60026000819055506000600b600083815260200190815260200160002090506000821180156113105750600a548211155b61134f576040517f08c379a000000000000000000000000000000000000000000000000000000000815260040161134690613115565b60405180910390fd5b8060040154341015611396576040517f08c379a000000000000000000000000000000000000000000000000000000000815260040161138d90612ff5565b60405180910390fd5b8060050160149054906101000a900460ff16156113e8576040517f08c379a00000000000000000000000000000000000000000000000000000000081526004016113df90612fd5565b60405180910390fd5b8060050160009054906101000a900473ffffffffffffffffffffffffffffffffffffffff1673ffffffffffffffffffffffffffffffffffffffff166108fc82600401549081150290604051600060405180830381858888f19350505050158015611456573d6000803e3d6000fd5b5060018160050160146101000a81548160ff0219169083151502179055508060010160009054906101000a900473ffffffffffffffffffffffffffffffffffffffff1673ffffffffffffffffffffffffffffffffffffffff166323b872dd303384600201546040518463ffffffff1660e01b81526004016114d993929190612f15565b600060405180830381600087803b1580156114f357600080fd5b505af1158015611507573d6000803e3d6000fd5b505050503373ffffffffffffffffffffffffffffffffffffffff168160050160009054906101000a900473ffffffffffffffffffffffffffffffffffffffff1673ffffffffffffffffffffffffffffffffffffffff168260010160009054906101000a900473ffffffffffffffffffffffffffffffffffffffff1673ffffffffffffffffffffffffffffffffffffffff167f8b4c9c8a607d67b321582dd8461041b1dc2ceeca70c8b7f37f8e02095cf2e76d85856002015486600401546040516115d393929190613346565b60405180910390a450600160008190555050565b6000600b6000838152602001908152602001600020600401549050919050565b6000600660008473ffffffffffffffffffffffffffffffffffffffff1673ffffffffffffffffffffffffffffffffffffffff16815260200190815260200160002060008373ffffffffffffffffffffffffffffffffffffffff1673ffffffffffffffffffffffffffffffffffffffff16815260200190815260200160002060009054906101000a900460ff16905092915050565b6116a3611869565b73ffffffffffffffffffffffffffffffffffffffff166116c1610e3e565b73ffffffffffffffffffffffffffffffffffffffff1614611717576040517f08c379a000000000000000000000000000000000000000000000000000000000815260040161170e90613215565b60405180910390fd5b600073ffffffffffffffffffffffffffffffffffffffff168173ffffffffffffffffffffffffffffffffffffffff161415611787576040517f08c379a000000000000000000000000000000000000000000000000000000000815260040161177e90613055565b60405180910390fd5b61179081611c6f565b50565b60007f01ffc9a7000000000000000000000000000000000000000000000000000000007bffffffffffffffffffffffffffffffffffffffffffffffffffffffff1916827bffffffffffffffffffffffffffffffffffffffffffffffffffffffff1916149050919050565b60008073ffffffffffffffffffffffffffffffffffffffff166003600084815260200190815260200160002060009054906101000a900473ffffffffffffffffffffffffffffffffffffffff1673ffffffffffffffffffffffffffffffffffffffff1614159050919050565b600033905090565b816005600083815260200190815260200160002060006101000a81548173ffffffffffffffffffffffffffffffffffffffff021916908373ffffffffffffffffffffffffffffffffffffffff160217905550808273ffffffffffffffffffffffffffffffffffffffff166118e483610c46565b73ffffffffffffffffffffffffffffffffffffffff167f8c5be1e5ebec7d5bd14f71427d1e84f3dd0314c0f7b2291e5b200ac8c7c3b92560405160405180910390a45050565b6000611935826117fd565b611974576040517f08c379a000000000000000000000000000000000000000000000000000000000815260040161196b906130f5565b60405180910390fd5b600061197f83610c46565b90508073ffffffffffffffffffffffffffffffffffffffff168473ffffffffffffffffffffffffffffffffffffffff1614806119c157506119c08185611607565b5b806119ff57508373ffffffffffffffffffffffffffffffffffffffff166119e78461070d565b73ffffffffffffffffffffffffffffffffffffffff16145b91505092915050565b8273ffffffffffffffffffffffffffffffffffffffff16611a2882610c46565b73ffffffffffffffffffffffffffffffffffffffff1614611a7e576040517f08c379a0000000000000000000000000000000000000000000000000000000008152600401611a7590613075565b60405180910390fd5b600073ffffffffffffffffffffffffffffffffffffffff168273ffffffffffffffffffffffffffffffffffffffff161415611aee576040517f08c379a0000000000000000000000000000000000000000000000000000000008152600401611ae5906130b5565b60405180910390fd5b611af983838361204e565b611b04600082611871565b6001600460008573ffffffffffffffffffffffffffffffffffffffff1673ffffffffffffffffffffffffffffffffffffffff1681526020019081526020016000206000828254611b5491906134ce565b925050819055506001600460008473ffffffffffffffffffffffffffffffffffffffff1673ffffffffffffffffffffffffffffffffffffffff1681526020019081526020016000206000828254611bab9190613447565b92505081905550816003600083815260200190815260200160002060006101000a81548173ffffffffffffffffffffffffffffffffffffffff021916908373ffffffffffffffffffffffffffffffffffffffff160217905550808273ffffffffffffffffffffffffffffffffffffffff168473ffffffffffffffffffffffffffffffffffffffff167fddf252ad1be2c89b69c2b068fc378daa952ba7f163c4a11628f55a4df523b3ef60405160405180910390a4611c6a838383612053565b505050565b6000600860009054906101000a900473ffffffffffffffffffffffffffffffffffffffff16905081600860006101000a81548173ffffffffffffffffffffffffffffffffffffffff021916908373ffffffffffffffffffffffffffffffffffffffff1602179055508173ffffffffffffffffffffffffffffffffffffffff168173ffffffffffffffffffffffffffffffffffffffff167f8be0079c531659141344cd1fd0a4f28419497f9722a3daafe3b4186f6b6457e060405160405180910390a35050565b611d4f828260405180602001604052806000815250612058565b5050565b611d5c826117fd565b611d9b576040517f08c379a0000000000000000000000000000000000000000000000000000000008152600401611d9290613195565b60405180910390fd5b80600760008481526020019081526020016000209080519060200190611dc29291906125f4565b505050565b8173ffffffffffffffffffffffffffffffffffffffff168373ffffffffffffffffffffffffffffffffffffffff161415611e36576040517f08c379a0000000000000000000000000000000000000000000000000000000008152600401611e2d906130d5565b60405180910390fd5b80600660008573ffffffffffffffffffffffffffffffffffffffff1673ffffffffffffffffffffffffffffffffffffffff16815260200190815260200160002060008473ffffffffffffffffffffffffffffffffffffffff1673ffffffffffffffffffffffffffffffffffffffff16815260200190815260200160002060006101000a81548160ff0219169083151502179055508173ffffffffffffffffffffffffffffffffffffffff168373ffffffffffffffffffffffffffffffffffffffff167f17307eab39ab6107e8899845ad3d59bd9653f200f220920489ca2b5937696c3183604051611f279190612f98565b60405180910390a3505050565b611f3f848484611a08565b611f4b848484846120b3565b611f8a576040517f08c379a0000000000000000000000000000000000000000000000000000000008152600401611f8190613035565b60405180910390fd5b50505050565b606060405180602001604052806000815250905090565b6060611fb2826117fd565b611ff1576040517f08c379a0000000000000000000000000000000000000000000000000000000008152600401611fe890613235565b60405180910390fd5b6000611ffb611f90565b9050600081511161201b5760405180602001604052806000815250612046565b806120258461224a565b604051602001612036929190612ed6565b6040516020818303038152906040525b915050919050565b505050565b505050565b61206283836123f7565b61206f60008484846120b3565b6120ae576040517f08c379a00000000000000000000000000000000000000000000000000000000081526004016120a590613035565b60405180910390fd5b505050565b60006120d48473ffffffffffffffffffffffffffffffffffffffff166125d1565b1561223d578373ffffffffffffffffffffffffffffffffffffffff1663150b7a026120fd611869565b8786866040518563ffffffff1660e01b815260040161211f9493929190612f4c565b602060405180830381600087803b15801561213957600080fd5b505af192505050801561216a57506040513d601f19601f8201168201806040525081019061216791906129b5565b60015b6121ed573d806000811461219a576040519150601f19603f3d011682016040523d82523d6000602084013e61219f565b606091505b506000815114156121e5576040517f08c379a00000000000000000000000000000000000000000000000000000000081526004016121dc90613035565b60405180910390fd5b805181602001fd5b63150b7a0260e01b7bffffffffffffffffffffffffffffffffffffffffffffffffffffffff1916817bffffffffffffffffffffffffffffffffffffffffffffffffffffffff191614915050612242565b600190505b949350505050565b60606000821415612292576040518060400160405280600181526020017f300000000000000000000000000000000000000000000000000000000000000081525090506123f2565b600082905060005b600082146122c45780806122ad90613663565b915050600a826122bd919061349d565b915061229a565b60008167ffffffffffffffff811115612306577f4e487b7100000000000000000000000000000000000000000000000000000000600052604160045260246000fd5b6040519080825280601f01601f1916602001820160405280156123385781602001600182028036833780820191505090505b5090505b600085146123eb5760018261235191906134ce565b9150600a8561236091906136ac565b603061236c9190613447565b60f81b8183815181106123a8577f4e487b7100000000000000000000000000000000000000000000000000000000600052603260045260246000fd5b60200101907effffffffffffffffffffffffffffffffffffffffffffffffffffffffffffff1916908160001a905350600a856123e4919061349d565b945061233c565b8093505050505b919050565b600073ffffffffffffffffffffffffffffffffffffffff168273ffffffffffffffffffffffffffffffffffffffff161415612467576040517f08c379a000000000000000000000000000000000000000000000000000000000815260040161245e906131b5565b60405180910390fd5b612470816117fd565b156124b0576040517f08c379a00000000000000000000000000000000000000000000000000000000081526004016124a790613095565b60405180910390fd5b6124bc6000838361204e565b6001600460008473ffffffffffffffffffffffffffffffffffffffff1673ffffffffffffffffffffffffffffffffffffffff168152602001908152602001600020600082825461250c9190613447565b92505081905550816003600083815260200190815260200160002060006101000a81548173ffffffffffffffffffffffffffffffffffffffff021916908373ffffffffffffffffffffffffffffffffffffffff160217905550808273ffffffffffffffffffffffffffffffffffffffff16600073ffffffffffffffffffffffffffffffffffffffff167fddf252ad1be2c89b69c2b068fc378daa952ba7f163c4a11628f55a4df523b3ef60405160405180910390a46125cd60008383612053565b5050565b6000808273ffffffffffffffffffffffffffffffffffffffff163b119050919050565b82805461260090613600565b90600052602060002090601f0160209004810192826126225760008555612669565b82601f1061263b57805160ff1916838001178555612669565b82800160010185558215612669579182015b8281111561266857825182559160200191906001019061264d565b5b509050612676919061267a565b5090565b5b8082111561269357600081600090555060010161267b565b5090565b60006126aa6126a5846133a2565b61337d565b9050828152602081018484840111156126c257600080fd5b6126cd8482856135be565b509392505050565b60006126e86126e3846133d3565b61337d565b90508281526020810184848401111561270057600080fd5b61270b8482856135be565b509392505050565b60008135905061272281613d93565b92915050565b60008135905061273781613daa565b92915050565b60008135905061274c81613dc1565b92915050565b60008151905061276181613dc1565b92915050565b600082601f83011261277857600080fd5b8135612788848260208601612697565b91505092915050565b6000813590506127a081613dd8565b92915050565b600082601f8301126127b757600080fd5b81356127c78482602086016126d5565b91505092915050565b6000813590506127df81613def565b92915050565b6000602082840312156127f757600080fd5b600061280584828501612713565b91505092915050565b6000806040838503121561282157600080fd5b600061282f85828601612713565b925050602061284085828601612713565b9150509250929050565b60008060006060848603121561285f57600080fd5b600061286d86828701612713565b935050602061287e86828701612713565b925050604061288f868287016127d0565b9150509250925092565b600080600080608085870312156128af57600080fd5b60006128bd87828801612713565b94505060206128ce87828801612713565b93505060406128df878288016127d0565b925050606085013567ffffffffffffffff8111156128fc57600080fd5b61290887828801612767565b91505092959194509250565b6000806040838503121561292757600080fd5b600061293585828601612713565b925050602061294685828601612728565b9150509250929050565b6000806040838503121561296357600080fd5b600061297185828601612713565b9250506020612982858286016127d0565b9150509250929050565b60006020828403121561299e57600080fd5b60006129ac8482850161273d565b91505092915050565b6000602082840312156129c757600080fd5b60006129d584828501612752565b91505092915050565b600080600080608085870312156129f457600080fd5b6000612a0287828801612791565b9450506020612a13878288016127d0565b935050604085013567ffffffffffffffff811115612a3057600080fd5b612a3c878288016127a6565b9250506060612a4d878288016127d0565b91505092959194509250565b600060208284031215612a6b57600080fd5b600082013567ffffffffffffffff811115612a8557600080fd5b612a91848285016127a6565b91505092915050565b600060208284031215612aac57600080fd5b6000612aba848285016127d0565b91505092915050565b612acc81613514565b82525050565b612adb81613502565b82525050565b612aea81613526565b82525050565b6000612afb82613404565b612b05818561341a565b9350612b158185602086016135cd565b612b1e81613799565b840191505092915050565b612b328161359a565b82525050565b6000612b438261340f565b612b4d818561342b565b9350612b5d8185602086016135cd565b612b6681613799565b840191505092915050565b6000612b7c8261340f565b612b86818561343c565b9350612b968185602086016135cd565b80840191505092915050565b6000612baf60118361342b565b9150612bba826137aa565b602082019050919050565b6000612bd260248361342b565b9150612bdd826137d3565b604082019050919050565b6000612bf5601f8361342b565b9150612c0082613822565b602082019050919050565b6000612c1860328361342b565b9150612c238261384b565b604082019050919050565b6000612c3b60268361342b565b9150612c468261389a565b604082019050919050565b6000612c5e60258361342b565b9150612c69826138e9565b604082019050919050565b6000612c81601c8361342b565b9150612c8c82613938565b602082019050919050565b6000612ca460248361342b565b9150612caf82613961565b604082019050919050565b6000612cc760198361342b565b9150612cd2826139b0565b602082019050919050565b6000612cea602c8361342b565b9150612cf5826139d9565b604082019050919050565b6000612d0d60128361342b565b9150612d1882613a28565b602082019050919050565b6000612d3060388361342b565b9150612d3b82613a51565b604082019050919050565b6000612d53602a8361342b565b9150612d5e82613aa0565b604082019050919050565b6000612d7660298361342b565b9150612d8182613aef565b604082019050919050565b6000612d99602e8361342b565b9150612da482613b3e565b604082019050919050565b6000612dbc60208361342b565b9150612dc782613b8d565b602082019050919050565b6000612ddf60318361342b565b9150612dea82613bb6565b604082019050919050565b6000612e02602c8361342b565b9150612e0d82613c05565b604082019050919050565b6000612e2560208361342b565b9150612e3082613c54565b602082019050919050565b6000612e48602f8361342b565b9150612e5382613c7d565b604082019050919050565b6000612e6b60218361342b565b9150612e7682613ccc565b604082019050919050565b6000612e8e60318361342b565b9150612e9982613d1b565b604082019050919050565b6000612eb1601f8361342b565b9150612ebc82613d6a565b602082019050919050565b612ed081613590565b82525050565b6000612ee28285612b71565b9150612eee8284612b71565b91508190509392505050565b6000602082019050612f0f6000830184612ad2565b92915050565b6000606082019050612f2a6000830186612ad2565b612f376020830185612ad2565b612f446040830184612ec7565b949350505050565b6000608082019050612f616000830187612ad2565b612f6e6020830186612ad2565b612f7b6040830185612ec7565b8181036060830152612f8d8184612af0565b905095945050505050565b6000602082019050612fad6000830184612ae1565b92915050565b60006020820190508181036000830152612fcd8184612b38565b905092915050565b60006020820190508181036000830152612fee81612ba2565b9050919050565b6000602082019050818103600083015261300e81612bc5565b9050919050565b6000602082019050818103600083015261302e81612be8565b9050919050565b6000602082019050818103600083015261304e81612c0b565b9050919050565b6000602082019050818103600083015261306e81612c2e565b9050919050565b6000602082019050818103600083015261308e81612c51565b9050919050565b600060208201905081810360008301526130ae81612c74565b9050919050565b600060208201905081810360008301526130ce81612c97565b9050919050565b600060208201905081810360008301526130ee81612cba565b9050919050565b6000602082019050818103600083015261310e81612cdd565b9050919050565b6000602082019050818103600083015261312e81612d00565b9050919050565b6000602082019050818103600083015261314e81612d23565b9050919050565b6000602082019050818103600083015261316e81612d46565b9050919050565b6000602082019050818103600083015261318e81612d69565b9050919050565b600060208201905081810360008301526131ae81612d8c565b9050919050565b600060208201905081810360008301526131ce81612daf565b9050919050565b600060208201905081810360008301526131ee81612dd2565b9050919050565b6000602082019050818103600083015261320e81612df5565b9050919050565b6000602082019050818103600083015261322e81612e18565b9050919050565b6000602082019050818103600083015261324e81612e3b565b9050919050565b6000602082019050818103600083015261326e81612e5e565b9050919050565b6000602082019050818103600083015261328e81612e81565b9050919050565b600060208201905081810360008301526132ae81612ea4565b9050919050565b60006020820190506132ca6000830184612ec7565b92915050565b600060e0820190506132e5600083018a612ec7565b6132f26020830189612b29565b6132ff6040830188612ec7565b81810360608301526133118187612b38565b90506133206080830186612ec7565b61332d60a0830185612ac3565b61333a60c0830184612ae1565b98975050505050505050565b600060608201905061335b6000830186612ec7565b6133686020830185612ec7565b6133756040830184612ec7565b949350505050565b6000613387613398565b90506133938282613632565b919050565b6000604051905090565b600067ffffffffffffffff8211156133bd576133bc61376a565b5b6133c682613799565b9050602081019050919050565b600067ffffffffffffffff8211156133ee576133ed61376a565b5b6133f782613799565b9050602081019050919050565b600081519050919050565b600081519050919050565b600082825260208201905092915050565b600082825260208201905092915050565b600081905092915050565b600061345282613590565b915061345d83613590565b9250827fffffffffffffffffffffffffffffffffffffffffffffffffffffffffffffffff03821115613492576134916136dd565b5b828201905092915050565b60006134a882613590565b91506134b383613590565b9250826134c3576134c261370c565b5b828204905092915050565b60006134d982613590565b91506134e483613590565b9250828210156134f7576134f66136dd565b5b828203905092915050565b600061350d82613570565b9050919050565b600061351f82613570565b9050919050565b60008115159050919050565b60007fffffffff0000000000000000000000000000000000000000000000000000000082169050919050565b600061356982613502565b9050919050565b600073ffffffffffffffffffffffffffffffffffffffff82169050919050565b6000819050919050565b60006135a5826135ac565b9050919050565b60006135b782613570565b9050919050565b82818337600083830152505050565b60005b838110156135eb5780820151818401526020810190506135d0565b838111156135fa576000848401525b50505050565b6000600282049050600182168061361857607f821691505b6020821081141561362c5761362b61373b565b5b50919050565b61363b82613799565b810181811067ffffffffffffffff8211171561365a5761365961376a565b5b80604052505050565b600061366e82613590565b91507fffffffffffffffffffffffffffffffffffffffffffffffffffffffffffffffff8214156136a1576136a06136dd565b5b600182019050919050565b60006136b782613590565b91506136c283613590565b9250826136d2576136d161370c565b5b828206905092915050565b7f4e487b7100000000000000000000000000000000000000000000000000000000600052601160045260246000fd5b7f4e487b7100000000000000000000000000000000000000000000000000000000600052601260045260246000fd5b7f4e487b7100000000000000000000000000000000000000000000000000000000600052602260045260246000fd5b7f4e487b7100000000000000000000000000000000000000000000000000000000600052604160045260246000fd5b6000601f19601f8301169050919050565b7f6974656d20616c726561647920736f6c64000000000000000000000000000000600082015250565b7f6e6f7420656e6f75676820657468657220746f20636f766572206974656d207060008201527f7269636500000000000000000000000000000000000000000000000000000000602082015250565b7f5072696365206d7573742062652067726561746572207468616e207a65726f00600082015250565b7f4552433732313a207472616e7366657220746f206e6f6e20455243373231526560008201527f63656976657220696d706c656d656e7465720000000000000000000000000000602082015250565b7f4f776e61626c653a206e6577206f776e657220697320746865207a65726f206160008201527f6464726573730000000000000000000000000000000000000000000000000000602082015250565b7f4552433732313a207472616e736665722066726f6d20696e636f72726563742060008201527f6f776e6572000000000000000000000000000000000000000000000000000000602082015250565b7f4552433732313a20746f6b656e20616c7265616479206d696e74656400000000600082015250565b7f4552433732313a207472616e7366657220746f20746865207a65726f2061646460008201527f7265737300000000000000000000000000000000000000000000000000000000602082015250565b7f4552433732313a20617070726f766520746f2063616c6c657200000000000000600082015250565b7f4552433732313a206f70657261746f7220717565727920666f72206e6f6e657860008201527f697374656e7420746f6b656e0000000000000000000000000000000000000000602082015250565b7f6974656d20646f65736e27742065786973740000000000000000000000000000600082015250565b7f4552433732313a20617070726f76652063616c6c6572206973206e6f74206f7760008201527f6e6572206e6f7220617070726f76656420666f7220616c6c0000000000000000602082015250565b7f4552433732313a2062616c616e636520717565727920666f7220746865207a6560008201527f726f206164647265737300000000000000000000000000000000000000000000602082015250565b7f4552433732313a206f776e657220717565727920666f72206e6f6e657869737460008201527f656e7420746f6b656e0000000000000000000000000000000000000000000000602082015250565b7f45524337323155524953746f726167653a2055524920736574206f66206e6f6e60008201527f6578697374656e7420746f6b656e000000000000000000000000000000000000602082015250565b7f4552433732313a206d696e7420746f20746865207a65726f2061646472657373600082015250565b7f45524337323155524953746f726167653a2055524920717565727920666f722060008201527f6e6f6e6578697374656e7420746f6b656e000000000000000000000000000000602082015250565b7f4552433732313a20617070726f76656420717565727920666f72206e6f6e657860008201527f697374656e7420746f6b656e0000000000000000000000000000000000000000602082015250565b7f4f776e61626c653a2063616c6c6572206973206e6f7420746865206f776e6572600082015250565b7f4552433732314d657461646174613a2055524920717565727920666f72206e6f60008201527f6e6578697374656e7420746f6b656e0000000000000000000000000000000000602082015250565b7f4552433732313a20617070726f76616c20746f2063757272656e74206f776e6560008201527f7200000000000000000000000000000000000000000000000000000000000000602082015250565b7f4552433732313a207472616e736665722063616c6c6572206973206e6f74206f60008201527f776e6572206e6f7220617070726f766564000000000000000000000000000000602082015250565b7f5265656e7472616e637947756172643a207265656e7472616e742063616c6c00600082015250565b613d9c81613502565b8114613da757600080fd5b50565b613db381613526565b8114613dbe57600080fd5b50565b613dca81613532565b8114613dd557600080fd5b50565b613de18161355e565b8114613dec57600080fd5b50565b613df881613590565b8114613e0357600080fd5b5056fea264697066735822122083bc1e83fe636ba0dd52d05e444d2ac79839eeba611ea30f5763fd5a33f9ebf064736f6c63430008040033",
  "linkReferences": {},
  "deployedLinkReferences": {}
}