{
  "_format": "hh-sol-artifact-1",
  "contractName": "Token",
  "sourceName": "contracts/Token.sol",
  "abi": [
    {
      "inputs": [],
      "stateMutability": "nonpayable",
      "type": "constructor"
    },
    {
      "anonymous": false,
      "inputs": [
        {
          "indexed": true,
          "internalType": "address",
          "name": "account",
          "type": "address"
        },
        {
          "indexed": true,
          "internalType": "address",
          "name": "operator",
          "type": "address"
        },
        {
          "indexed": false,
          "internalType": "bool",
          "name": "approved",
          "type": "bool"
        }
      ],
      "name": "ApprovalForAll",
      "type": "event"
    },
    {
      "anonymous": false,
      "inputs": [
        {
          "indexed": true,
          "internalType": "address",
          "name": "previousOwner",
          "type": "address"
        },
        {
          "indexed": true,
          "internalType": "address",
          "name": "newOwner",
          "type": "address"
        }
      ],
      "name": "OwnershipTransferred",
      "type": "event"
    },
    {
      "anonymous": false,
      "inputs": [
        {
          "indexed": true,
          "internalType": "address",
          "name": "operator",
          "type": "address"
        },
        {
          "indexed": true,
          "internalType": "address",
          "name": "from",
          "type": "address"
        },
        {
          "indexed": true,
          "internalType": "address",
          "name": "to",
          "type": "address"
        },
        {
          "indexed": false,
          "internalType": "uint256[]",
          "name": "ids",
          "type": "uint256[]"
        },
        {
          "indexed": false,
          "internalType": "uint256[]",
          "name": "values",
          "type": "uint256[]"
        }
      ],
      "name": "TransferBatch",
      "type": "event"
    },
    {
      "anonymous": false,
      "inputs": [
        {
          "indexed": true,
          "internalType": "address",
          "name": "operator",
          "type": "address"
        },
        {
          "indexed": true,
          "internalType": "address",
          "name": "from",
          "type": "address"
        },
        {
          "indexed": true,
          "internalType": "address",
          "name": "to",
          "type": "address"
        },
        {
          "indexed": false,
          "internalType": "uint256",
          "name": "id",
          "type": "uint256"
        },
        {
          "indexed": false,
          "internalType": "uint256",
          "name": "value",
          "type": "uint256"
        }
      ],
      "name": "TransferSingle",
      "type": "event"
    },
    {
      "anonymous": false,
      "inputs": [
        {
          "indexed": false,
          "internalType": "string",
          "name": "value",
          "type": "string"
        },
        {
          "indexed": true,
          "internalType": "uint256",
          "name": "id",
          "type": "uint256"
        }
      ],
      "name": "URI",
      "type": "event"
    },
    {
      "inputs": [
        {
          "internalType": "address",
          "name": "account",
          "type": "address"
        },
        {
          "internalType": "uint256",
          "name": "id",
          "type": "uint256"
        }
      ],
      "name": "balanceOf",
      "outputs": [
        {
          "internalType": "uint256",
          "name": "",
          "type": "uint256"
        }
      ],
      "stateMutability": "view",
      "type": "function"
    },
    {
      "inputs": [
        {
          "internalType": "address[]",
          "name": "accounts",
          "type": "address[]"
        },
        {
          "internalType": "uint256[]",
          "name": "ids",
          "type": "uint256[]"
        }
      ],
      "name": "balanceOfBatch",
      "outputs": [
        {
          "internalType": "uint256[]",
          "name": "",
          "type": "uint256[]"
        }
      ],
      "stateMutability": "view",
      "type": "function"
    },
    {
      "inputs": [
        {
          "internalType": "address",
          "name": "account",
          "type": "address"
        },
        {
          "internalType": "uint256",
          "name": "id",
          "type": "uint256"
        },
        {
          "internalType": "uint256",
          "name": "value",
          "type": "uint256"
        }
      ],
      "name": "burn",
      "outputs": [],
      "stateMutability": "nonpayable",
      "type": "function"
    },
    {
      "inputs": [
        {
          "internalType": "address",
          "name": "account",
          "type": "address"
        },
        {
          "internalType": "uint256[]",
          "name": "ids",
          "type": "uint256[]"
        },
        {
          "internalType": "uint256[]",
          "name": "values",
          "type": "uint256[]"
        }
      ],
      "name": "burnBatch",
      "outputs": [],
      "stateMutability": "nonpayable",
      "type": "function"
    },
    {
      "inputs": [
        {
          "internalType": "address",
          "name": "account",
          "type": "address"
        },
        {
          "internalType": "address",
          "name": "operator",
          "type": "address"
        }
      ],
      "name": "isApprovedForAll",
      "outputs": [
        {
          "internalType": "bool",
          "name": "",
          "type": "bool"
        }
      ],
      "stateMutability": "view",
      "type": "function"
    },
    {
      "inputs": [
        {
          "internalType": "address",
          "name": "to",
          "type": "address"
        },
        {
          "internalType": "uint256",
          "name": "id",
          "type": "uint256"
        },
        {
          "internalType": "uint256",
          "name": "amount",
          "type": "uint256"
        }
      ],
      "name": "mint",
      "outputs": [],
      "stateMutability": "nonpayable",
      "type": "function"
    },
    {
      "inputs": [
        {
          "internalType": "address",
          "name": "to",
          "type": "address"
        },
        {
          "internalType": "uint256[]",
          "name": "ids",
          "type": "uint256[]"
        },
        {
          "internalType": "uint256[]",
          "name": "amounts",
          "type": "uint256[]"
        }
      ],
      "name": "mintBatch",
      "outputs": [],
      "stateMutability": "nonpayable",
      "type": "function"
    },
    {
      "inputs": [],
      "name": "name",
      "outputs": [
        {
          "internalType": "string",
          "name": "",
          "type": "string"
        }
      ],
      "stateMutability": "view",
      "type": "function"
    },
    {
      "inputs": [],
      "name": "owner",
      "outputs": [
        {
          "internalType": "address",
          "name": "",
          "type": "address"
        }
      ],
      "stateMutability": "view",
      "type": "function"
    },
    {
      "inputs": [],
      "name": "renounceOwnership",
      "outputs": [],
      "stateMutability": "nonpayable",
      "type": "function"
    },
    {
      "inputs": [
        {
          "internalType": "address",
          "name": "from",
          "type": "address"
        },
        {
          "internalType": "address",
          "name": "to",
          "type": "address"
        },
        {
          "internalType": "uint256[]",
          "name": "ids",
          "type": "uint256[]"
        },
        {
          "internalType": "uint256[]",
          "name": "amounts",
          "type": "uint256[]"
        },
        {
          "internalType": "bytes",
          "name": "data",
          "type": "bytes"
        }
      ],
      "name": "safeBatchTransferFrom",
      "outputs": [],
      "stateMutability": "nonpayable",
      "type": "function"
    },
    {
      "inputs": [
        {
          "internalType": "address",
          "name": "from",
          "type": "address"
        },
        {
          "internalType": "address",
          "name": "to",
          "type": "address"
        },
        {
          "internalType": "uint256",
          "name": "id",
          "type": "uint256"
        },
        {
          "internalType": "uint256",
          "name": "amount",
          "type": "uint256"
        },
        {
          "internalType": "bytes",
          "name": "data",
          "type": "bytes"
        }
      ],
      "name": "safeTransferFrom",
      "outputs": [],
      "stateMutability": "nonpayable",
      "type": "function"
    },
    {
      "inputs": [
        {
          "internalType": "address",
          "name": "operator",
          "type": "address"
        },
        {
          "internalType": "bool",
          "name": "approved",
          "type": "bool"
        }
      ],
      "name": "setApprovalForAll",
      "outputs": [],
      "stateMutability": "nonpayable",
      "type": "function"
    },
    {
      "inputs": [
        {
          "internalType": "string",
          "name": "newuri",
          "type": "string"
        }
      ],
      "name": "setURI",
      "outputs": [],
      "stateMutability": "nonpayable",
      "type": "function"
    },
    {
      "inputs": [
        {
          "internalType": "bytes4",
          "name": "interfaceId",
          "type": "bytes4"
        }
      ],
      "name": "supportsInterface",
      "outputs": [
        {
          "internalType": "bool",
          "name": "",
          "type": "bool"
        }
      ],
      "stateMutability": "view",
      "type": "function"
    },
    {
      "inputs": [],
      "name": "symbol",
      "outputs": [
        {
          "internalType": "string",
          "name": "",
          "type": "string"
        }
      ],
      "stateMutability": "view",
      "type": "function"
    },
    {
      "inputs": [
        {
          "internalType": "address",
          "name": "newOwner",
          "type": "address"
        }
      ],
      "name": "transferOwnership",
      "outputs": [],
      "stateMutability": "nonpayable",
      "type": "function"
    },
    {
      "inputs": [
        {
          "internalType": "uint256",
          "name": "",
          "type": "uint256"
        }
      ],
      "name": "uri",
      "outputs": [
        {
          "internalType": "string",
          "name": "",
          "type": "string"
        }
      ],
      "stateMutability": "view",
      "type": "function"
    }
  ],
  "bytecode": "0x60806040523480156200001157600080fd5b506040518060800160405280604d81526020016200409a604d91396200003d816200010060201b60201c565b506200005e620000526200011c60201b60201c565b6200012460201b60201c565b6040518060400160405280600781526020017f54726f747465720000000000000000000000000000000000000000000000000081525060049080519060200190620000ab929190620001ea565b506040518060400160405280600481526020017f545254520000000000000000000000000000000000000000000000000000000081525060059080519060200190620000f9929190620001ea565b50620002ff565b806002908051906020019062000118929190620001ea565b5050565b600033905090565b6000600360009054906101000a900473ffffffffffffffffffffffffffffffffffffffff16905081600360006101000a81548173ffffffffffffffffffffffffffffffffffffffff021916908373ffffffffffffffffffffffffffffffffffffffff1602179055508173ffffffffffffffffffffffffffffffffffffffff168173ffffffffffffffffffffffffffffffffffffffff167f8be0079c531659141344cd1fd0a4f28419497f9722a3daafe3b4186f6b6457e060405160405180910390a35050565b828054620001f8906200029a565b90600052602060002090601f0160209004810192826200021c576000855562000268565b82601f106200023757805160ff191683800117855562000268565b8280016001018555821562000268579182015b82811115620002675782518255916020019190600101906200024a565b5b5090506200027791906200027b565b5090565b5b80821115620002965760008160009055506001016200027c565b5090565b60006002820490506001821680620002b357607f821691505b60208210811415620002ca57620002c9620002d0565b5b50919050565b7f4e487b7100000000000000000000000000000000000000000000000000000000600052602260045260246000fd5b613d8b806200030f6000396000f3fe608060405234801561001057600080fd5b50600436106101155760003560e01c8063715018a6116100a2578063d81d0a1511610071578063d81d0a15146102ca578063e985e9c5146102e6578063f242432a14610316578063f2fde38b14610332578063f5298aca1461034e57610115565b8063715018a6146102685780638da5cb5b1461027257806395d89b4114610290578063a22cb465146102ae57610115565b80630e89341c116100e95780630e89341c146101b4578063156e29f6146101e45780632eb2c2d6146102005780634e1273f41461021c5780636b20c4541461024c57610115565b8062fdd58e1461011a57806301ffc9a71461014a57806302fe53051461017a57806306fdde0314610196575b600080fd5b610134600480360381019061012f9190612b98565b61036a565b60405161014191906133cf565b60405180910390f35b610164600480360381019061015f9190612c8f565b610433565b60405161017191906131b2565b60405180910390f35b610194600480360381019061018f9190612ce1565b610515565b005b61019e61059d565b6040516101ab91906131cd565b60405180910390f35b6101ce60048036038101906101c99190612d22565b61062b565b6040516101db91906131cd565b60405180910390f35b6101fe60048036038101906101f99190612bd4565b6106bf565b005b61021a6004803603810190610215919061298f565b61075b565b005b61023660048036038101906102319190612c23565b6107fc565b6040516102439190613159565b60405180910390f35b61026660048036038101906102619190612add565b6109ad565b005b610270610a4a565b005b61027a610ad2565b604051610287919061307c565b60405180910390f35b610298610afc565b6040516102a591906131cd565b60405180910390f35b6102c860048036038101906102c39190612b5c565b610b8a565b005b6102e460048036038101906102df9190612add565b610ba0565b005b61030060048036038101906102fb9190612953565b610c3c565b60405161030d91906131b2565b60405180910390f35b610330600480360381019061032b9190612a4e565b610cd0565b005b61034c6004803603810190610347919061292a565b610d71565b005b61036860048036038101906103639190612bd4565b610e69565b005b60008073ffffffffffffffffffffffffffffffffffffffff168373ffffffffffffffffffffffffffffffffffffffff1614156103db576040517f08c379a00000000000000000000000000000000000000000000000000000000081526004016103d29061322f565b60405180910390fd5b60008083815260200190815260200160002060008473ffffffffffffffffffffffffffffffffffffffff1673ffffffffffffffffffffffffffffffffffffffff16815260200190815260200160002054905092915050565b60007fd9b67a26000000000000000000000000000000000000000000000000000000007bffffffffffffffffffffffffffffffffffffffffffffffffffffffff1916827bffffffffffffffffffffffffffffffffffffffffffffffffffffffff191614806104fe57507f0e89341c000000000000000000000000000000000000000000000000000000007bffffffffffffffffffffffffffffffffffffffffffffffffffffffff1916827bffffffffffffffffffffffffffffffffffffffffffffffffffffffff1916145b8061050e575061050d82610f06565b5b9050919050565b61051d610f70565b73ffffffffffffffffffffffffffffffffffffffff1661053b610ad2565b73ffffffffffffffffffffffffffffffffffffffff1614610591576040517f08c379a00000000000000000000000000000000000000000000000000000000081526004016105889061332f565b60405180910390fd5b61059a81610f78565b50565b600480546105aa9061366f565b80601f01602080910402602001604051908101604052809291908181526020018280546105d69061366f565b80156106235780601f106105f857610100808354040283529160200191610623565b820191906000526020600020905b81548152906001019060200180831161060657829003601f168201915b505050505081565b60606002805461063a9061366f565b80601f01602080910402602001604051908101604052809291908181526020018280546106669061366f565b80156106b35780601f10610688576101008083540402835291602001916106b3565b820191906000526020600020905b81548152906001019060200180831161069657829003601f168201915b50505050509050919050565b6106c7610f70565b73ffffffffffffffffffffffffffffffffffffffff166106e5610ad2565b73ffffffffffffffffffffffffffffffffffffffff161461073b576040517f08c379a00000000000000000000000000000000000000000000000000000000081526004016107329061332f565b60405180910390fd5b61075683838360405180602001604052806000815250610f92565b505050565b610763610f70565b73ffffffffffffffffffffffffffffffffffffffff168573ffffffffffffffffffffffffffffffffffffffff1614806107a957506107a8856107a3610f70565b610c3c565b5b6107e8576040517f08c379a00000000000000000000000000000000000000000000000000000000081526004016107df906132cf565b60405180910390fd5b6107f58585858585611143565b5050505050565b60608151835114610842576040517f08c379a00000000000000000000000000000000000000000000000000000000081526004016108399061336f565b60405180910390fd5b6000835167ffffffffffffffff811115610885577f4e487b7100000000000000000000000000000000000000000000000000000000600052604160045260246000fd5b6040519080825280602002602001820160405280156108b35781602001602082028036833780820191505090505b50905060005b84518110156109a25761094c8582815181106108fe577f4e487b7100000000000000000000000000000000000000000000000000000000600052603260045260246000fd5b602002602001015185838151811061093f577f4e487b7100000000000000000000000000000000000000000000000000000000600052603260045260246000fd5b602002602001015161036a565b828281518110610985577f4e487b7100000000000000000000000000000000000000000000000000000000600052603260045260246000fd5b6020026020010181815250508061099b906136d2565b90506108b9565b508091505092915050565b6109b5610f70565b73ffffffffffffffffffffffffffffffffffffffff168373ffffffffffffffffffffffffffffffffffffffff1614806109fb57506109fa836109f5610f70565b610c3c565b5b610a3a576040517f08c379a0000000000000000000000000000000000000000000000000000000008152600401610a319061328f565b60405180910390fd5b610a458383836114b1565b505050565b610a52610f70565b73ffffffffffffffffffffffffffffffffffffffff16610a70610ad2565b73ffffffffffffffffffffffffffffffffffffffff1614610ac6576040517f08c379a0000000000000000000000000000000000000000000000000000000008152600401610abd9061332f565b60405180910390fd5b610ad060006117cc565b565b6000600360009054906101000a900473ffffffffffffffffffffffffffffffffffffffff16905090565b60058054610b099061366f565b80601f0160208091040260200160405190810160405280929190818152602001828054610b359061366f565b8015610b825780601f10610b5757610100808354040283529160200191610b82565b820191906000526020600020905b815481529060010190602001808311610b6557829003601f168201915b505050505081565b610b9c610b95610f70565b8383611892565b5050565b610ba8610f70565b73ffffffffffffffffffffffffffffffffffffffff16610bc6610ad2565b73ffffffffffffffffffffffffffffffffffffffff1614610c1c576040517f08c379a0000000000000000000000000000000000000000000000000000000008152600401610c139061332f565b60405180910390fd5b610c37838383604051806020016040528060008152506119ff565b505050565b6000600160008473ffffffffffffffffffffffffffffffffffffffff1673ffffffffffffffffffffffffffffffffffffffff16815260200190815260200160002060008373ffffffffffffffffffffffffffffffffffffffff1673ffffffffffffffffffffffffffffffffffffffff16815260200190815260200160002060009054906101000a900460ff16905092915050565b610cd8610f70565b73ffffffffffffffffffffffffffffffffffffffff168573ffffffffffffffffffffffffffffffffffffffff161480610d1e5750610d1d85610d18610f70565b610c3c565b5b610d5d576040517f08c379a0000000000000000000000000000000000000000000000000000000008152600401610d549061328f565b60405180910390fd5b610d6a8585858585611c78565b5050505050565b610d79610f70565b73ffffffffffffffffffffffffffffffffffffffff16610d97610ad2565b73ffffffffffffffffffffffffffffffffffffffff1614610ded576040517f08c379a0000000000000000000000000000000000000000000000000000000008152600401610de49061332f565b60405180910390fd5b600073ffffffffffffffffffffffffffffffffffffffff168173ffffffffffffffffffffffffffffffffffffffff161415610e5d576040517f08c379a0000000000000000000000000000000000000000000000000000000008152600401610e549061324f565b60405180910390fd5b610e66816117cc565b50565b610e71610f70565b73ffffffffffffffffffffffffffffffffffffffff168373ffffffffffffffffffffffffffffffffffffffff161480610eb75750610eb683610eb1610f70565b610c3c565b5b610ef6576040517f08c379a0000000000000000000000000000000000000000000000000000000008152600401610eed9061328f565b60405180910390fd5b610f01838383611f14565b505050565b60007f01ffc9a7000000000000000000000000000000000000000000000000000000007bffffffffffffffffffffffffffffffffffffffffffffffffffffffff1916827bffffffffffffffffffffffffffffffffffffffffffffffffffffffff1916149050919050565b600033905090565b8060029080519060200190610f8e929190612622565b5050565b600073ffffffffffffffffffffffffffffffffffffffff168473ffffffffffffffffffffffffffffffffffffffff161415611002576040517f08c379a0000000000000000000000000000000000000000000000000000000008152600401610ff9906133af565b60405180910390fd5b600061100c610f70565b905060006110198561215b565b905060006110268561215b565b905061103783600089858589612221565b8460008088815260200190815260200160002060008973ffffffffffffffffffffffffffffffffffffffff1673ffffffffffffffffffffffffffffffffffffffff16815260200190815260200160002060008282546110969190613563565b925050819055508673ffffffffffffffffffffffffffffffffffffffff16600073ffffffffffffffffffffffffffffffffffffffff168473ffffffffffffffffffffffffffffffffffffffff167fc3d58168c5ae7397731d063d5bbf3d657854427343f4c083240f7aacaa2d0f6289896040516111149291906133ea565b60405180910390a461112b83600089858589612229565b61113a83600089898989612231565b50505050505050565b8151835114611187576040517f08c379a000000000000000000000000000000000000000000000000000000000815260040161117e9061338f565b60405180910390fd5b600073ffffffffffffffffffffffffffffffffffffffff168473ffffffffffffffffffffffffffffffffffffffff1614156111f7576040517f08c379a00000000000000000000000000000000000000000000000000000000081526004016111ee906132af565b60405180910390fd5b6000611201610f70565b9050611211818787878787612221565b60005b845181101561140e576000858281518110611258577f4e487b7100000000000000000000000000000000000000000000000000000000600052603260045260246000fd5b60200260200101519050600085838151811061129d577f4e487b7100000000000000000000000000000000000000000000000000000000600052603260045260246000fd5b60200260200101519050600080600084815260200190815260200160002060008b73ffffffffffffffffffffffffffffffffffffffff1673ffffffffffffffffffffffffffffffffffffffff1681526020019081526020016000205490508181101561133e576040517f08c379a00000000000000000000000000000000000000000000000000000000081526004016113359061330f565b60405180910390fd5b81810360008085815260200190815260200160002060008c73ffffffffffffffffffffffffffffffffffffffff1673ffffffffffffffffffffffffffffffffffffffff168152602001908152602001600020819055508160008085815260200190815260200160002060008b73ffffffffffffffffffffffffffffffffffffffff1673ffffffffffffffffffffffffffffffffffffffff16815260200190815260200160002060008282546113f39190613563565b9250508190555050505080611407906136d2565b9050611214565b508473ffffffffffffffffffffffffffffffffffffffff168673ffffffffffffffffffffffffffffffffffffffff168273ffffffffffffffffffffffffffffffffffffffff167f4a39dc06d4c0dbc64b70af90fd698a233a518aa5d07e595d983b8c0526c8f7fb878760405161148592919061317b565b60405180910390a461149b818787878787612229565b6114a9818787878787612418565b505050505050565b600073ffffffffffffffffffffffffffffffffffffffff168373ffffffffffffffffffffffffffffffffffffffff161415611521576040517f08c379a0000000000000000000000000000000000000000000000000000000008152600401611518906132ef565b60405180910390fd5b8051825114611565576040517f08c379a000000000000000000000000000000000000000000000000000000000815260040161155c9061338f565b60405180910390fd5b600061156f610f70565b905061158f81856000868660405180602001604052806000815250612221565b60005b83518110156117285760008482815181106115d6577f4e487b7100000000000000000000000000000000000000000000000000000000600052603260045260246000fd5b60200260200101519050600084838151811061161b577f4e487b7100000000000000000000000000000000000000000000000000000000600052603260045260246000fd5b60200260200101519050600080600084815260200190815260200160002060008973ffffffffffffffffffffffffffffffffffffffff1673ffffffffffffffffffffffffffffffffffffffff168152602001908152602001600020549050818110156116bc576040517f08c379a00000000000000000000000000000000000000000000000000000000081526004016116b39061326f565b60405180910390fd5b81810360008085815260200190815260200160002060008a73ffffffffffffffffffffffffffffffffffffffff1673ffffffffffffffffffffffffffffffffffffffff168152602001908152602001600020819055505050508080611720906136d2565b915050611592565b50600073ffffffffffffffffffffffffffffffffffffffff168473ffffffffffffffffffffffffffffffffffffffff168273ffffffffffffffffffffffffffffffffffffffff167f4a39dc06d4c0dbc64b70af90fd698a233a518aa5d07e595d983b8c0526c8f7fb86866040516117a092919061317b565b60405180910390a46117c681856000868660405180602001604052806000815250612229565b50505050565b6000600360009054906101000a900473ffffffffffffffffffffffffffffffffffffffff16905081600360006101000a81548173ffffffffffffffffffffffffffffffffffffffff021916908373ffffffffffffffffffffffffffffffffffffffff1602179055508173ffffffffffffffffffffffffffffffffffffffff168173ffffffffffffffffffffffffffffffffffffffff167f8be0079c531659141344cd1fd0a4f28419497f9722a3daafe3b4186f6b6457e060405160405180910390a35050565b8173ffffffffffffffffffffffffffffffffffffffff168373ffffffffffffffffffffffffffffffffffffffff161415611901576040517f08c379a00000000000000000000000000000000000000000000000000000000081526004016118f89061334f565b60405180910390fd5b80600160008573ffffffffffffffffffffffffffffffffffffffff1673ffffffffffffffffffffffffffffffffffffffff16815260200190815260200160002060008473ffffffffffffffffffffffffffffffffffffffff1673ffffffffffffffffffffffffffffffffffffffff16815260200190815260200160002060006101000a81548160ff0219169083151502179055508173ffffffffffffffffffffffffffffffffffffffff168373ffffffffffffffffffffffffffffffffffffffff167f17307eab39ab6107e8899845ad3d59bd9653f200f220920489ca2b5937696c31836040516119f291906131b2565b60405180910390a3505050565b600073ffffffffffffffffffffffffffffffffffffffff168473ffffffffffffffffffffffffffffffffffffffff161415611a6f576040517f08c379a0000000000000000000000000000000000000000000000000000000008152600401611a66906133af565b60405180910390fd5b8151835114611ab3576040517f08c379a0000000000000000000000000000000000000000000000000000000008152600401611aaa9061338f565b60405180910390fd5b6000611abd610f70565b9050611ace81600087878787612221565b60005b8451811015611bd357838181518110611b13577f4e487b7100000000000000000000000000000000000000000000000000000000600052603260045260246000fd5b6020026020010151600080878481518110611b57577f4e487b7100000000000000000000000000000000000000000000000000000000600052603260045260246000fd5b6020026020010151815260200190815260200160002060008873ffffffffffffffffffffffffffffffffffffffff1673ffffffffffffffffffffffffffffffffffffffff1681526020019081526020016000206000828254611bb99190613563565b925050819055508080611bcb906136d2565b915050611ad1565b508473ffffffffffffffffffffffffffffffffffffffff16600073ffffffffffffffffffffffffffffffffffffffff168273ffffffffffffffffffffffffffffffffffffffff167f4a39dc06d4c0dbc64b70af90fd698a233a518aa5d07e595d983b8c0526c8f7fb8787604051611c4b92919061317b565b60405180910390a4611c6281600087878787612229565b611c7181600087878787612418565b5050505050565b600073ffffffffffffffffffffffffffffffffffffffff168473ffffffffffffffffffffffffffffffffffffffff161415611ce8576040517f08c379a0000000000000000000000000000000000000000000000000000000008152600401611cdf906132af565b60405180910390fd5b6000611cf2610f70565b90506000611cff8561215b565b90506000611d0c8561215b565b9050611d1c838989858589612221565b600080600088815260200190815260200160002060008a73ffffffffffffffffffffffffffffffffffffffff1673ffffffffffffffffffffffffffffffffffffffff16815260200190815260200160002054905085811015611db3576040517f08c379a0000000000000000000000000000000000000000000000000000000008152600401611daa9061330f565b60405180910390fd5b85810360008089815260200190815260200160002060008b73ffffffffffffffffffffffffffffffffffffffff1673ffffffffffffffffffffffffffffffffffffffff168152602001908152602001600020819055508560008089815260200190815260200160002060008a73ffffffffffffffffffffffffffffffffffffffff1673ffffffffffffffffffffffffffffffffffffffff1681526020019081526020016000206000828254611e689190613563565b925050819055508773ffffffffffffffffffffffffffffffffffffffff168973ffffffffffffffffffffffffffffffffffffffff168573ffffffffffffffffffffffffffffffffffffffff167fc3d58168c5ae7397731d063d5bbf3d657854427343f4c083240f7aacaa2d0f628a8a604051611ee59291906133ea565b60405180910390a4611efb848a8a86868a612229565b611f09848a8a8a8a8a612231565b505050505050505050565b600073ffffffffffffffffffffffffffffffffffffffff168373ffffffffffffffffffffffffffffffffffffffff161415611f84576040517f08c379a0000000000000000000000000000000000000000000000000000000008152600401611f7b906132ef565b60405180910390fd5b6000611f8e610f70565b90506000611f9b8461215b565b90506000611fa88461215b565b9050611fc883876000858560405180602001604052806000815250612221565b600080600087815260200190815260200160002060008873ffffffffffffffffffffffffffffffffffffffff1673ffffffffffffffffffffffffffffffffffffffff1681526020019081526020016000205490508481101561205f576040517f08c379a00000000000000000000000000000000000000000000000000000000081526004016120569061326f565b60405180910390fd5b84810360008088815260200190815260200160002060008973ffffffffffffffffffffffffffffffffffffffff1673ffffffffffffffffffffffffffffffffffffffff16815260200190815260200160002081905550600073ffffffffffffffffffffffffffffffffffffffff168773ffffffffffffffffffffffffffffffffffffffff168573ffffffffffffffffffffffffffffffffffffffff167fc3d58168c5ae7397731d063d5bbf3d657854427343f4c083240f7aacaa2d0f62898960405161212c9291906133ea565b60405180910390a461215284886000868660405180602001604052806000815250612229565b50505050505050565b60606000600167ffffffffffffffff8111156121a0577f4e487b7100000000000000000000000000000000000000000000000000000000600052604160045260246000fd5b6040519080825280602002602001820160405280156121ce5781602001602082028036833780820191505090505b509050828160008151811061220c577f4e487b7100000000000000000000000000000000000000000000000000000000600052603260045260246000fd5b60200260200101818152505080915050919050565b505050505050565b505050505050565b6122508473ffffffffffffffffffffffffffffffffffffffff166125ff565b15612410578373ffffffffffffffffffffffffffffffffffffffff1663f23a6e6187878686866040518663ffffffff1660e01b81526004016122969594939291906130ff565b602060405180830381600087803b1580156122b057600080fd5b505af19250505080156122e157506040513d601f19601f820116820180604052508101906122de9190612cb8565b60015b612387576122ed6137a8565b806308c379a0141561234a5750612302613c63565b8061230d575061234c565b806040517f08c379a000000000000000000000000000000000000000000000000000000000815260040161234191906131cd565b60405180910390fd5b505b6040517f08c379a000000000000000000000000000000000000000000000000000000000815260040161237e906131ef565b60405180910390fd5b63f23a6e6160e01b7bffffffffffffffffffffffffffffffffffffffffffffffffffffffff1916817bffffffffffffffffffffffffffffffffffffffffffffffffffffffff19161461240e576040517f08c379a00000000000000000000000000000000000000000000000000000000081526004016124059061320f565b60405180910390fd5b505b505050505050565b6124378473ffffffffffffffffffffffffffffffffffffffff166125ff565b156125f7578373ffffffffffffffffffffffffffffffffffffffff1663bc197c8187878686866040518663ffffffff1660e01b815260040161247d959493929190613097565b602060405180830381600087803b15801561249757600080fd5b505af19250505080156124c857506040513d601f19601f820116820180604052508101906124c59190612cb8565b60015b61256e576124d46137a8565b806308c379a0141561253157506124e9613c63565b806124f45750612533565b806040517f08c379a000000000000000000000000000000000000000000000000000000000815260040161252891906131cd565b60405180910390fd5b505b6040517f08c379a0000000000000000000000000000000000000000000000000000000008152600401612565906131ef565b60405180910390fd5b63bc197c8160e01b7bffffffffffffffffffffffffffffffffffffffffffffffffffffffff1916817bffffffffffffffffffffffffffffffffffffffffffffffffffffffff1916146125f5576040517f08c379a00000000000000000000000000000000000000000000000000000000081526004016125ec9061320f565b60405180910390fd5b505b505050505050565b6000808273ffffffffffffffffffffffffffffffffffffffff163b119050919050565b82805461262e9061366f565b90600052602060002090601f0160209004810192826126505760008555612697565b82601f1061266957805160ff1916838001178555612697565b82800160010185558215612697579182015b8281111561269657825182559160200191906001019061267b565b5b5090506126a491906126a8565b5090565b5b808211156126c15760008160009055506001016126a9565b5090565b60006126d86126d384613438565b613413565b905080838252602082019050828560208602820111156126f757600080fd5b60005b85811015612727578161270d8882612819565b8452602084019350602083019250506001810190506126fa565b5050509392505050565b600061274461273f84613464565b613413565b9050808382526020820190508285602086028201111561276357600080fd5b60005b8581101561279357816127798882612915565b845260208401935060208301925050600181019050612766565b5050509392505050565b60006127b06127ab84613490565b613413565b9050828152602081018484840111156127c857600080fd5b6127d384828561362d565b509392505050565b60006127ee6127e9846134c1565b613413565b90508281526020810184848401111561280657600080fd5b61281184828561362d565b509392505050565b60008135905061282881613cf9565b92915050565b600082601f83011261283f57600080fd5b813561284f8482602086016126c5565b91505092915050565b600082601f83011261286957600080fd5b8135612879848260208601612731565b91505092915050565b60008135905061289181613d10565b92915050565b6000813590506128a681613d27565b92915050565b6000815190506128bb81613d27565b92915050565b600082601f8301126128d257600080fd5b81356128e284826020860161279d565b91505092915050565b600082601f8301126128fc57600080fd5b813561290c8482602086016127db565b91505092915050565b60008135905061292481613d3e565b92915050565b60006020828403121561293c57600080fd5b600061294a84828501612819565b91505092915050565b6000806040838503121561296657600080fd5b600061297485828601612819565b925050602061298585828601612819565b9150509250929050565b600080600080600060a086880312156129a757600080fd5b60006129b588828901612819565b95505060206129c688828901612819565b945050604086013567ffffffffffffffff8111156129e357600080fd5b6129ef88828901612858565b935050606086013567ffffffffffffffff811115612a0c57600080fd5b612a1888828901612858565b925050608086013567ffffffffffffffff811115612a3557600080fd5b612a41888289016128c1565b9150509295509295909350565b600080600080600060a08688031215612a6657600080fd5b6000612a7488828901612819565b9550506020612a8588828901612819565b9450506040612a9688828901612915565b9350506060612aa788828901612915565b925050608086013567ffffffffffffffff811115612ac457600080fd5b612ad0888289016128c1565b9150509295509295909350565b600080600060608486031215612af257600080fd5b6000612b0086828701612819565b935050602084013567ffffffffffffffff811115612b1d57600080fd5b612b2986828701612858565b925050604084013567ffffffffffffffff811115612b4657600080fd5b612b5286828701612858565b9150509250925092565b60008060408385031215612b6f57600080fd5b6000612b7d85828601612819565b9250506020612b8e85828601612882565b9150509250929050565b60008060408385031215612bab57600080fd5b6000612bb985828601612819565b9250506020612bca85828601612915565b9150509250929050565b600080600060608486031215612be957600080fd5b6000612bf786828701612819565b9350506020612c0886828701612915565b9250506040612c1986828701612915565b9150509250925092565b60008060408385031215612c3657600080fd5b600083013567ffffffffffffffff811115612c5057600080fd5b612c5c8582860161282e565b925050602083013567ffffffffffffffff811115612c7957600080fd5b612c8585828601612858565b9150509250929050565b600060208284031215612ca157600080fd5b6000612caf84828501612897565b91505092915050565b600060208284031215612cca57600080fd5b6000612cd8848285016128ac565b91505092915050565b600060208284031215612cf357600080fd5b600082013567ffffffffffffffff811115612d0d57600080fd5b612d19848285016128eb565b91505092915050565b600060208284031215612d3457600080fd5b6000612d4284828501612915565b91505092915050565b6000612d57838361305e565b60208301905092915050565b612d6c816135b9565b82525050565b6000612d7d82613502565b612d878185613530565b9350612d92836134f2565b8060005b83811015612dc3578151612daa8882612d4b565b9750612db583613523565b925050600181019050612d96565b5085935050505092915050565b612dd9816135cb565b82525050565b6000612dea8261350d565b612df48185613541565b9350612e0481856020860161363c565b612e0d816137ca565b840191505092915050565b6000612e2382613518565b612e2d8185613552565b9350612e3d81856020860161363c565b612e46816137ca565b840191505092915050565b6000612e5e603483613552565b9150612e69826137e8565b604082019050919050565b6000612e81602883613552565b9150612e8c82613837565b604082019050919050565b6000612ea4602b83613552565b9150612eaf82613886565b604082019050919050565b6000612ec7602683613552565b9150612ed2826138d5565b604082019050919050565b6000612eea602483613552565b9150612ef582613924565b604082019050919050565b6000612f0d602983613552565b9150612f1882613973565b604082019050919050565b6000612f30602583613552565b9150612f3b826139c2565b604082019050919050565b6000612f53603283613552565b9150612f5e82613a11565b604082019050919050565b6000612f76602383613552565b9150612f8182613a60565b604082019050919050565b6000612f99602a83613552565b9150612fa482613aaf565b604082019050919050565b6000612fbc602083613552565b9150612fc782613afe565b602082019050919050565b6000612fdf602983613552565b9150612fea82613b27565b604082019050919050565b6000613002602983613552565b915061300d82613b76565b604082019050919050565b6000613025602883613552565b915061303082613bc5565b604082019050919050565b6000613048602183613552565b915061305382613c14565b604082019050919050565b61306781613623565b82525050565b61307681613623565b82525050565b60006020820190506130916000830184612d63565b92915050565b600060a0820190506130ac6000830188612d63565b6130b96020830187612d63565b81810360408301526130cb8186612d72565b905081810360608301526130df8185612d72565b905081810360808301526130f38184612ddf565b90509695505050505050565b600060a0820190506131146000830188612d63565b6131216020830187612d63565b61312e604083018661306d565b61313b606083018561306d565b818103608083015261314d8184612ddf565b90509695505050505050565b600060208201905081810360008301526131738184612d72565b905092915050565b600060408201905081810360008301526131958185612d72565b905081810360208301526131a98184612d72565b90509392505050565b60006020820190506131c76000830184612dd0565b92915050565b600060208201905081810360008301526131e78184612e18565b905092915050565b6000602082019050818103600083015261320881612e51565b9050919050565b6000602082019050818103600083015261322881612e74565b9050919050565b6000602082019050818103600083015261324881612e97565b9050919050565b6000602082019050818103600083015261326881612eba565b9050919050565b6000602082019050818103600083015261328881612edd565b9050919050565b600060208201905081810360008301526132a881612f00565b9050919050565b600060208201905081810360008301526132c881612f23565b9050919050565b600060208201905081810360008301526132e881612f46565b9050919050565b6000602082019050818103600083015261330881612f69565b9050919050565b6000602082019050818103600083015261332881612f8c565b9050919050565b6000602082019050818103600083015261334881612faf565b9050919050565b6000602082019050818103600083015261336881612fd2565b9050919050565b6000602082019050818103600083015261338881612ff5565b9050919050565b600060208201905081810360008301526133a881613018565b9050919050565b600060208201905081810360008301526133c88161303b565b9050919050565b60006020820190506133e4600083018461306d565b92915050565b60006040820190506133ff600083018561306d565b61340c602083018461306d565b9392505050565b600061341d61342e565b905061342982826136a1565b919050565b6000604051905090565b600067ffffffffffffffff82111561345357613452613779565b5b602082029050602081019050919050565b600067ffffffffffffffff82111561347f5761347e613779565b5b602082029050602081019050919050565b600067ffffffffffffffff8211156134ab576134aa613779565b5b6134b4826137ca565b9050602081019050919050565b600067ffffffffffffffff8211156134dc576134db613779565b5b6134e5826137ca565b9050602081019050919050565b6000819050602082019050919050565b600081519050919050565b600081519050919050565b600081519050919050565b6000602082019050919050565b600082825260208201905092915050565b600082825260208201905092915050565b600082825260208201905092915050565b600061356e82613623565b915061357983613623565b9250827fffffffffffffffffffffffffffffffffffffffffffffffffffffffffffffffff038211156135ae576135ad61371b565b5b828201905092915050565b60006135c482613603565b9050919050565b60008115159050919050565b60007fffffffff0000000000000000000000000000000000000000000000000000000082169050919050565b600073ffffffffffffffffffffffffffffffffffffffff82169050919050565b6000819050919050565b82818337600083830152505050565b60005b8381101561365a57808201518184015260208101905061363f565b83811115613669576000848401525b50505050565b6000600282049050600182168061368757607f821691505b6020821081141561369b5761369a61374a565b5b50919050565b6136aa826137ca565b810181811067ffffffffffffffff821117156136c9576136c8613779565b5b80604052505050565b60006136dd82613623565b91507fffffffffffffffffffffffffffffffffffffffffffffffffffffffffffffffff8214156137105761370f61371b565b5b600182019050919050565b7f4e487b7100000000000000000000000000000000000000000000000000000000600052601160045260246000fd5b7f4e487b7100000000000000000000000000000000000000000000000000000000600052602260045260246000fd5b7f4e487b7100000000000000000000000000000000000000000000000000000000600052604160045260246000fd5b600060033d11156137c75760046000803e6137c46000516137db565b90505b90565b6000601f19601f8301169050919050565b60008160e01c9050919050565b7f455243313135353a207472616e7366657220746f206e6f6e204552433131353560008201527f526563656976657220696d706c656d656e746572000000000000000000000000602082015250565b7f455243313135353a204552433131353552656365697665722072656a6563746560008201527f6420746f6b656e73000000000000000000000000000000000000000000000000602082015250565b7f455243313135353a2062616c616e636520717565727920666f7220746865207a60008201527f65726f2061646472657373000000000000000000000000000000000000000000602082015250565b7f4f776e61626c653a206e6577206f776e657220697320746865207a65726f206160008201527f6464726573730000000000000000000000000000000000000000000000000000602082015250565b7f455243313135353a206275726e20616d6f756e7420657863656564732062616c60008201527f616e636500000000000000000000000000000000000000000000000000000000602082015250565b7f455243313135353a2063616c6c6572206973206e6f74206f776e6572206e6f7260008201527f20617070726f7665640000000000000000000000000000000000000000000000602082015250565b7f455243313135353a207472616e7366657220746f20746865207a65726f20616460008201527f6472657373000000000000000000000000000000000000000000000000000000602082015250565b7f455243313135353a207472616e736665722063616c6c6572206973206e6f742060008201527f6f776e6572206e6f7220617070726f7665640000000000000000000000000000602082015250565b7f455243313135353a206275726e2066726f6d20746865207a65726f206164647260008201527f6573730000000000000000000000000000000000000000000000000000000000602082015250565b7f455243313135353a20696e73756666696369656e742062616c616e636520666f60008201527f72207472616e7366657200000000000000000000000000000000000000000000602082015250565b7f4f776e61626c653a2063616c6c6572206973206e6f7420746865206f776e6572600082015250565b7f455243313135353a2073657474696e6720617070726f76616c2073746174757360008201527f20666f722073656c660000000000000000000000000000000000000000000000602082015250565b7f455243313135353a206163636f756e747320616e6420696473206c656e67746860008201527f206d69736d617463680000000000000000000000000000000000000000000000602082015250565b7f455243313135353a2069647320616e6420616d6f756e7473206c656e6774682060008201527f6d69736d61746368000000000000000000000000000000000000000000000000602082015250565b7f455243313135353a206d696e7420746f20746865207a65726f2061646472657360008201527f7300000000000000000000000000000000000000000000000000000000000000602082015250565b600060443d1015613c7357613cf6565b613c7b61342e565b60043d036004823e80513d602482011167ffffffffffffffff82111715613ca3575050613cf6565b808201805167ffffffffffffffff811115613cc15750505050613cf6565b80602083010160043d038501811115613cde575050505050613cf6565b613ced826020018501866136a1565b82955050505050505b90565b613d02816135b9565b8114613d0d57600080fd5b50565b613d19816135cb565b8114613d2457600080fd5b50565b613d30816135d7565b8114613d3b57600080fd5b50565b613d4781613623565b8114613d5257600080fd5b5056fea26469706673582212207f97b7c550b6699a9cc9908d695e759c1c97885ae5e5e6481b9a7ef59c51387964736f6c6343000804003368747470733a2f2f697066732e696f2f697066732f516d624c45324c543835576a5a69617161763846485465726e50434e566d345172524c38326f50584846636878622f7b69647d2e6a736f6e",
  "linkReferences": {},
  "deployedLinkReferences": {}
}