{
  "_format": "hh-sol-artifact-1",
  "contractName": "Token",
  "sourceName": "contracts/Token.sol",
  "abi": [
    {
      "inputs": [],
      "stateMutability": "nonpayable",
      "type": "constructor"
    },
    {
      "anonymous": false,
      "inputs": [
        {
          "indexed": true,
          "internalType": "address",
          "name": "account",
          "type": "address"
        },
        {
          "indexed": true,
          "internalType": "address",
          "name": "operator",
          "type": "address"
        },
        {
          "indexed": false,
          "internalType": "bool",
          "name": "approved",
          "type": "bool"
        }
      ],
      "name": "ApprovalForAll",
      "type": "event"
    },
    {
      "anonymous": false,
      "inputs": [
        {
          "indexed": true,
          "internalType": "address",
          "name": "previousOwner",
          "type": "address"
        },
        {
          "indexed": true,
          "internalType": "address",
          "name": "newOwner",
          "type": "address"
        }
      ],
      "name": "OwnershipTransferred",
      "type": "event"
    },
    {
      "anonymous": false,
      "inputs": [
        {
          "indexed": true,
          "internalType": "address",
          "name": "operator",
          "type": "address"
        },
        {
          "indexed": true,
          "internalType": "address",
          "name": "from",
          "type": "address"
        },
        {
          "indexed": true,
          "internalType": "address",
          "name": "to",
          "type": "address"
        },
        {
          "indexed": false,
          "internalType": "uint256[]",
          "name": "ids",
          "type": "uint256[]"
        },
        {
          "indexed": false,
          "internalType": "uint256[]",
          "name": "values",
          "type": "uint256[]"
        }
      ],
      "name": "TransferBatch",
      "type": "event"
    },
    {
      "anonymous": false,
      "inputs": [
        {
          "indexed": true,
          "internalType": "address",
          "name": "operator",
          "type": "address"
        },
        {
          "indexed": true,
          "internalType": "address",
          "name": "from",
          "type": "address"
        },
        {
          "indexed": true,
          "internalType": "address",
          "name": "to",
          "type": "address"
        },
        {
          "indexed": false,
          "internalType": "uint256",
          "name": "id",
          "type": "uint256"
        },
        {
          "indexed": false,
          "internalType": "uint256",
          "name": "value",
          "type": "uint256"
        }
      ],
      "name": "TransferSingle",
      "type": "event"
    },
    {
      "anonymous": false,
      "inputs": [
        {
          "indexed": false,
          "internalType": "string",
          "name": "value",
          "type": "string"
        },
        {
          "indexed": true,
          "internalType": "uint256",
          "name": "id",
          "type": "uint256"
        }
      ],
      "name": "URI",
      "type": "event"
    },
    {
      "inputs": [
        {
          "internalType": "address",
          "name": "account",
          "type": "address"
        },
        {
          "internalType": "uint256",
          "name": "id",
          "type": "uint256"
        }
      ],
      "name": "balanceOf",
      "outputs": [
        {
          "internalType": "uint256",
          "name": "",
          "type": "uint256"
        }
      ],
      "stateMutability": "view",
      "type": "function"
    },
    {
      "inputs": [
        {
          "internalType": "address[]",
          "name": "accounts",
          "type": "address[]"
        },
        {
          "internalType": "uint256[]",
          "name": "ids",
          "type": "uint256[]"
        }
      ],
      "name": "balanceOfBatch",
      "outputs": [
        {
          "internalType": "uint256[]",
          "name": "",
          "type": "uint256[]"
        }
      ],
      "stateMutability": "view",
      "type": "function"
    },
    {
      "inputs": [
        {
          "internalType": "address",
          "name": "account",
          "type": "address"
        },
        {
          "internalType": "uint256",
          "name": "id",
          "type": "uint256"
        },
        {
          "internalType": "uint256",
          "name": "value",
          "type": "uint256"
        }
      ],
      "name": "burn",
      "outputs": [],
      "stateMutability": "nonpayable",
      "type": "function"
    },
    {
      "inputs": [
        {
          "internalType": "address",
          "name": "account",
          "type": "address"
        },
        {
          "internalType": "uint256[]",
          "name": "ids",
          "type": "uint256[]"
        },
        {
          "internalType": "uint256[]",
          "name": "values",
          "type": "uint256[]"
        }
      ],
      "name": "burnBatch",
      "outputs": [],
      "stateMutability": "nonpayable",
      "type": "function"
    },
    {
      "inputs": [
        {
          "internalType": "address",
          "name": "account",
          "type": "address"
        },
        {
          "internalType": "address",
          "name": "operator",
          "type": "address"
        }
      ],
      "name": "isApprovedForAll",
      "outputs": [
        {
          "internalType": "bool",
          "name": "",
          "type": "bool"
        }
      ],
      "stateMutability": "view",
      "type": "function"
    },
    {
      "inputs": [
        {
          "internalType": "address",
          "name": "to",
          "type": "address"
        },
        {
          "internalType": "uint256",
          "name": "id",
          "type": "uint256"
        },
        {
          "internalType": "uint256",
          "name": "amount",
          "type": "uint256"
        }
      ],
      "name": "mint",
      "outputs": [],
      "stateMutability": "nonpayable",
      "type": "function"
    },
    {
      "inputs": [
        {
          "internalType": "address",
          "name": "to",
          "type": "address"
        },
        {
          "internalType": "uint256[]",
          "name": "ids",
          "type": "uint256[]"
        },
        {
          "internalType": "uint256[]",
          "name": "amounts",
          "type": "uint256[]"
        }
      ],
      "name": "mintBatch",
      "outputs": [],
      "stateMutability": "nonpayable",
      "type": "function"
    },
    {
      "inputs": [],
      "name": "name",
      "outputs": [
        {
          "internalType": "string",
          "name": "",
          "type": "string"
        }
      ],
      "stateMutability": "view",
      "type": "function"
    },
    {
      "inputs": [],
      "name": "owner",
      "outputs": [
        {
          "internalType": "address",
          "name": "",
          "type": "address"
        }
      ],
      "stateMutability": "view",
      "type": "function"
    },
    {
      "inputs": [],
      "name": "renounceOwnership",
      "outputs": [],
      "stateMutability": "nonpayable",
      "type": "function"
    },
    {
      "inputs": [
        {
          "internalType": "address",
          "name": "from",
          "type": "address"
        },
        {
          "internalType": "address",
          "name": "to",
          "type": "address"
        },
        {
          "internalType": "uint256[]",
          "name": "ids",
          "type": "uint256[]"
        },
        {
          "internalType": "uint256[]",
          "name": "amounts",
          "type": "uint256[]"
        },
        {
          "internalType": "bytes",
          "name": "data",
          "type": "bytes"
        }
      ],
      "name": "safeBatchTransferFrom",
      "outputs": [],
      "stateMutability": "nonpayable",
      "type": "function"
    },
    {
      "inputs": [
        {
          "internalType": "address",
          "name": "from",
          "type": "address"
        },
        {
          "internalType": "address",
          "name": "to",
          "type": "address"
        },
        {
          "internalType": "uint256",
          "name": "id",
          "type": "uint256"
        },
        {
          "internalType": "uint256",
          "name": "amount",
          "type": "uint256"
        },
        {
          "internalType": "bytes",
          "name": "data",
          "type": "bytes"
        }
      ],
      "name": "safeTransferFrom",
      "outputs": [],
      "stateMutability": "nonpayable",
      "type": "function"
    },
    {
      "inputs": [
        {
          "internalType": "address",
          "name": "operator",
          "type": "address"
        },
        {
          "internalType": "bool",
          "name": "approved",
          "type": "bool"
        }
      ],
      "name": "setApprovalForAll",
      "outputs": [],
      "stateMutability": "nonpayable",
      "type": "function"
    },
    {
      "inputs": [
        {
          "internalType": "string",
          "name": "newuri",
          "type": "string"
        }
      ],
      "name": "setURI",
      "outputs": [],
      "stateMutability": "nonpayable",
      "type": "function"
    },
    {
      "inputs": [
        {
          "internalType": "bytes4",
          "name": "interfaceId",
          "type": "bytes4"
        }
      ],
      "name": "supportsInterface",
      "outputs": [
        {
          "internalType": "bool",
          "name": "",
          "type": "bool"
        }
      ],
      "stateMutability": "view",
      "type": "function"
    },
    {
      "inputs": [],
      "name": "symbol",
      "outputs": [
        {
          "internalType": "string",
          "name": "",
          "type": "string"
        }
      ],
      "stateMutability": "view",
      "type": "function"
    },
    {
      "inputs": [
        {
          "internalType": "address",
          "name": "newOwner",
          "type": "address"
        }
      ],
      "name": "transferOwnership",
      "outputs": [],
      "stateMutability": "nonpayable",
      "type": "function"
    },
    {
      "inputs": [
        {
          "internalType": "uint256",
          "name": "tokenId",
          "type": "uint256"
        }
      ],
      "name": "uri",
      "outputs": [
        {
          "internalType": "string",
          "name": "",
          "type": "string"
        }
      ],
      "stateMutability": "pure",
      "type": "function"
    }
  ],
  "bytecode": "0x60806040523480156200001157600080fd5b506040805160208101909152600081526200002c816200009d565b506200003833620000b6565b604080518082019091526007808252662a3937ba3a32b960c91b6020909201918252620000689160049162000108565b50604080518082019091526004808252632a292a2960e11b6020909201918252620000969160059162000108565b50620001eb565b8051620000b290600290602084019062000108565b5050565b600380546001600160a01b038381166001600160a01b0319831681179093556040519116919082907f8be0079c531659141344cd1fd0a4f28419497f9722a3daafe3b4186f6b6457e090600090a35050565b8280546200011690620001ae565b90600052602060002090601f0160209004810192826200013a576000855562000185565b82601f106200015557805160ff191683800117855562000185565b8280016001018555821562000185579182015b828111156200018557825182559160200191906001019062000168565b506200019392915062000197565b5090565b5b8082111562000193576000815560010162000198565b600181811c90821680620001c357607f821691505b60208210811415620001e557634e487b7160e01b600052602260045260246000fd5b50919050565b6121ab80620001fb6000396000f3fe608060405234801561001057600080fd5b50600436106101155760003560e01c8063715018a6116100a2578063d81d0a1511610071578063d81d0a1514610237578063e985e9c51461024a578063f242432a14610286578063f2fde38b14610299578063f5298aca146102ac57600080fd5b8063715018a6146101f95780638da5cb5b1461020157806395d89b411461021c578063a22cb4651461022457600080fd5b80630e89341c116100e95780630e89341c1461018d578063156e29f6146101a05780632eb2c2d6146101b35780634e1273f4146101c65780636b20c454146101e657600080fd5b8062fdd58e1461011a57806301ffc9a71461014057806302fe53051461016357806306fdde0314610178575b600080fd5b61012d61012836600461194c565b6102bf565b6040519081526020015b60405180910390f35b61015361014e366004611a72565b610356565b6040519015158152602001610137565b610176610171366004611aaa565b6103a8565b005b6101806103de565b6040516101379190611cd9565b61018061019b366004611af0565b61046c565b6101766101ae366004611975565b61049d565b6101766101c1366004611798565b6104e7565b6101d96101d43660046119a7565b61057e565b6040516101379190611c98565b6101766101f43660046118a1565b6106e0565b610176610723565b6003546040516001600160a01b039091168152602001610137565b610180610759565b610176610232366004611912565b610766565b6101766102453660046118a1565b610775565b610153610258366004611766565b6001600160a01b03918216600090815260016020908152604080832093909416825291909152205460ff1690565b61017661029436600461183e565b6107ba565b6101766102a736600461174c565b6107ff565b6101766102ba366004611975565b610897565b60006001600160a01b0383166103305760405162461bcd60e51b815260206004820152602b60248201527f455243313135353a2062616c616e636520717565727920666f7220746865207a60448201526a65726f206164647265737360a81b60648201526084015b60405180910390fd5b506000908152602081815260408083206001600160a01b03949094168352929052205490565b60006001600160e01b03198216636cdb3d1360e11b148061038757506001600160e01b031982166303a24d0760e21b145b806103a257506301ffc9a760e01b6001600160e01b03198316145b92915050565b6003546001600160a01b031633146103d25760405162461bcd60e51b815260040161032790611e93565b6103db816108da565b50565b600480546103eb90611fe4565b80601f016020809104026020016040519081016040528092919081815260200182805461041790611fe4565b80156104645780601f1061043957610100808354040283529160200191610464565b820191906000526020600020905b81548152906001019060200180831161044757829003601f168201915b505050505081565b6060610477826108ed565b6040516020016104879190611b6e565b6040516020818303038152906040529050919050565b6003546001600160a01b031633146104c75760405162461bcd60e51b815260040161032790611e93565b6104e283838360405180602001604052806000815250610a0f565b505050565b6001600160a01b03851633148061050357506105038533610258565b61056a5760405162461bcd60e51b815260206004820152603260248201527f455243313135353a207472616e736665722063616c6c6572206973206e6f74206044820152711bdddb995c881b9bdc88185c1c1c9bdd995960721b6064820152608401610327565b6105778585858585610ae9565b5050505050565b606081518351146105e35760405162461bcd60e51b815260206004820152602960248201527f455243313135353a206163636f756e747320616e6420696473206c656e677468604482015268040dad2e6dac2e8c6d60bb1b6064820152608401610327565b6000835167ffffffffffffffff81111561060d57634e487b7160e01b600052604160045260246000fd5b604051908082528060200260200182016040528015610636578160200160208202803683370190505b50905060005b84518110156106d85761069d85828151811061066857634e487b7160e01b600052603260045260246000fd5b602002602001015185838151811061069057634e487b7160e01b600052603260045260246000fd5b60200260200101516102bf565b8282815181106106bd57634e487b7160e01b600052603260045260246000fd5b60209081029190910101526106d18161204c565b905061063c565b509392505050565b6001600160a01b0383163314806106fc57506106fc8333610258565b6107185760405162461bcd60e51b815260040161032790611d78565b6104e2838383610ca1565b6003546001600160a01b0316331461074d5760405162461bcd60e51b815260040161032790611e93565b6107576000610e49565b565b600580546103eb90611fe4565b610771338383610e9b565b5050565b6003546001600160a01b0316331461079f5760405162461bcd60e51b815260040161032790611e93565b6104e283838360405180602001604052806000815250610f7c565b6001600160a01b0385163314806107d657506107d68533610258565b6107f25760405162461bcd60e51b815260040161032790611d78565b61057785858585856110e3565b6003546001600160a01b031633146108295760405162461bcd60e51b815260040161032790611e93565b6001600160a01b03811661088e5760405162461bcd60e51b815260206004820152602660248201527f4f776e61626c653a206e6577206f776e657220697320746865207a65726f206160448201526564647265737360d01b6064820152608401610327565b6103db81610e49565b6001600160a01b0383163314806108b357506108b38333610258565b6108cf5760405162461bcd60e51b815260040161032790611d78565b6104e283838361120d565b805161077190600290602084019061159f565b6060816109115750506040805180820190915260018152600360fc1b602082015290565b8160005b811561093b57806109258161204c565b91506109349050600a83611f8d565b9150610915565b60008167ffffffffffffffff81111561096457634e487b7160e01b600052604160045260246000fd5b6040519080825280601f01601f19166020018201604052801561098e576020820181803683370190505b5090505b8415610a07576109a3600183611fa1565b91506109b0600a86612067565b6109bb906030611f75565b60f81b8183815181106109de57634e487b7160e01b600052603260045260246000fd5b60200101906001600160f81b031916908160001a905350610a00600a86611f8d565b9450610992565b949350505050565b6001600160a01b038416610a355760405162461bcd60e51b815260040161032790611f10565b336000610a4185611311565b90506000610a4e85611311565b90506000868152602081815260408083206001600160a01b038b16845290915281208054879290610a80908490611f75565b909155505060408051878152602081018790526001600160a01b03808a1692600092918716917fc3d58168c5ae7397731d063d5bbf3d657854427343f4c083240f7aacaa2d0f62910160405180910390a4610ae08360008989898961136a565b50505050505050565b8151835114610b0a5760405162461bcd60e51b815260040161032790611ec8565b6001600160a01b038416610b305760405162461bcd60e51b815260040161032790611dc1565b3360005b8451811015610c33576000858281518110610b5f57634e487b7160e01b600052603260045260246000fd5b602002602001015190506000858381518110610b8b57634e487b7160e01b600052603260045260246000fd5b602090810291909101810151600084815280835260408082206001600160a01b038e168352909352919091205490915081811015610bdb5760405162461bcd60e51b815260040161032790611e49565b6000838152602081815260408083206001600160a01b038e8116855292528083208585039055908b16825281208054849290610c18908490611f75565b9250508190555050505080610c2c9061204c565b9050610b34565b50846001600160a01b0316866001600160a01b0316826001600160a01b03167f4a39dc06d4c0dbc64b70af90fd698a233a518aa5d07e595d983b8c0526c8f7fb8787604051610c83929190611cab565b60405180910390a4610c998187878787876114d5565b505050505050565b6001600160a01b038316610cc75760405162461bcd60e51b815260040161032790611e06565b8051825114610ce85760405162461bcd60e51b815260040161032790611ec8565b604080516020810190915260009081905233905b8351811015610dda576000848281518110610d2757634e487b7160e01b600052603260045260246000fd5b602002602001015190506000848381518110610d5357634e487b7160e01b600052603260045260246000fd5b602090810291909101810151600084815280835260408082206001600160a01b038c168352909352919091205490915081811015610da35760405162461bcd60e51b815260040161032790611d34565b6000928352602083815260408085206001600160a01b038b1686529091529092209103905580610dd28161204c565b915050610cfc565b5060006001600160a01b0316846001600160a01b0316826001600160a01b03167f4a39dc06d4c0dbc64b70af90fd698a233a518aa5d07e595d983b8c0526c8f7fb8686604051610e2b929190611cab565b60405180910390a46040805160208101909152600090525b50505050565b600380546001600160a01b038381166001600160a01b0319831681179093556040519116919082907f8be0079c531659141344cd1fd0a4f28419497f9722a3daafe3b4186f6b6457e090600090a35050565b816001600160a01b0316836001600160a01b03161415610f0f5760405162461bcd60e51b815260206004820152602960248201527f455243313135353a2073657474696e6720617070726f76616c20737461747573604482015268103337b91039b2b63360b91b6064820152608401610327565b6001600160a01b03838116600081815260016020908152604080832094871680845294825291829020805460ff191686151590811790915591519182527f17307eab39ab6107e8899845ad3d59bd9653f200f220920489ca2b5937696c31910160405180910390a3505050565b6001600160a01b038416610fa25760405162461bcd60e51b815260040161032790611f10565b8151835114610fc35760405162461bcd60e51b815260040161032790611ec8565b3360005b845181101561107b57838181518110610ff057634e487b7160e01b600052603260045260246000fd5b602002602001015160008087848151811061101b57634e487b7160e01b600052603260045260246000fd5b602002602001015181526020019081526020016000206000886001600160a01b03166001600160a01b0316815260200190815260200160002060008282546110639190611f75565b909155508190506110738161204c565b915050610fc7565b50846001600160a01b031660006001600160a01b0316826001600160a01b03167f4a39dc06d4c0dbc64b70af90fd698a233a518aa5d07e595d983b8c0526c8f7fb87876040516110cc929190611cab565b60405180910390a4610577816000878787876114d5565b6001600160a01b0384166111095760405162461bcd60e51b815260040161032790611dc1565b33600061111585611311565b9050600061112285611311565b90506000868152602081815260408083206001600160a01b038c168452909152902054858110156111655760405162461bcd60e51b815260040161032790611e49565b6000878152602081815260408083206001600160a01b038d8116855292528083208985039055908a168252812080548892906111a2908490611f75565b909155505060408051888152602081018890526001600160a01b03808b16928c821692918816917fc3d58168c5ae7397731d063d5bbf3d657854427343f4c083240f7aacaa2d0f62910160405180910390a4611202848a8a8a8a8a61136a565b505050505050505050565b6001600160a01b0383166112335760405162461bcd60e51b815260040161032790611e06565b33600061123f84611311565b9050600061124c84611311565b60408051602080820183526000918290528882528181528282206001600160a01b038b16835290522054909150848110156112995760405162461bcd60e51b815260040161032790611d34565b6000868152602081815260408083206001600160a01b038b81168086529184528285208a8703905582518b81529384018a90529092908816917fc3d58168c5ae7397731d063d5bbf3d657854427343f4c083240f7aacaa2d0f62910160405180910390a4604080516020810190915260009052610ae0565b6040805160018082528183019092526060916000919060208083019080368337019050509050828160008151811061135957634e487b7160e01b600052603260045260246000fd5b602090810291909101015292915050565b6001600160a01b0384163b15610c995760405163f23a6e6160e01b81526001600160a01b0385169063f23a6e61906113ae9089908990889088908890600401611c53565b602060405180830381600087803b1580156113c857600080fd5b505af19250505080156113f8575060408051601f3d908101601f191682019092526113f591810190611a8e565b60015b6114a5576114046120bd565b806308c379a0141561143e57506114196120d5565b806114245750611440565b8060405162461bcd60e51b81526004016103279190611cd9565b505b60405162461bcd60e51b815260206004820152603460248201527f455243313135353a207472616e7366657220746f206e6f6e20455243313135356044820152732932b1b2b4bb32b91034b6b83632b6b2b73a32b960611b6064820152608401610327565b6001600160e01b0319811663f23a6e6160e01b14610ae05760405162461bcd60e51b815260040161032790611cec565b6001600160a01b0384163b15610c995760405163bc197c8160e01b81526001600160a01b0385169063bc197c81906115199089908990889088908890600401611bf5565b602060405180830381600087803b15801561153357600080fd5b505af1925050508015611563575060408051601f3d908101601f1916820190925261156091810190611a8e565b60015b61156f576114046120bd565b6001600160e01b0319811663bc197c8160e01b14610ae05760405162461bcd60e51b815260040161032790611cec565b8280546115ab90611fe4565b90600052602060002090601f0160209004810192826115cd5760008555611613565b82601f106115e657805160ff1916838001178555611613565b82800160010185558215611613579182015b828111156116135782518255916020019190600101906115f8565b5061161f929150611623565b5090565b5b8082111561161f5760008155600101611624565b600067ffffffffffffffff831115611652576116526120a7565b604051611669601f8501601f19166020018261201f565b80915083815284848401111561167e57600080fd5b83836020830137600060208583010152509392505050565b80356001600160a01b03811681146116ad57600080fd5b919050565b600082601f8301126116c2578081fd5b813560206116cf82611f51565b6040516116dc828261201f565b8381528281019150858301600585901b870184018810156116fb578586fd5b855b85811015611719578135845292840192908401906001016116fd565b5090979650505050505050565b600082601f830112611736578081fd5b61174583833560208501611638565b9392505050565b60006020828403121561175d578081fd5b61174582611696565b60008060408385031215611778578081fd5b61178183611696565b915061178f60208401611696565b90509250929050565b600080600080600060a086880312156117af578081fd5b6117b886611696565b94506117c660208701611696565b9350604086013567ffffffffffffffff808211156117e2578283fd5b6117ee89838a016116b2565b94506060880135915080821115611803578283fd5b61180f89838a016116b2565b93506080880135915080821115611824578283fd5b5061183188828901611726565b9150509295509295909350565b600080600080600060a08688031215611855578081fd5b61185e86611696565b945061186c60208701611696565b93506040860135925060608601359150608086013567ffffffffffffffff811115611895578182fd5b61183188828901611726565b6000806000606084860312156118b5578283fd5b6118be84611696565b9250602084013567ffffffffffffffff808211156118da578384fd5b6118e6878388016116b2565b935060408601359150808211156118fb578283fd5b50611908868287016116b2565b9150509250925092565b60008060408385031215611924578182fd5b61192d83611696565b915060208301358015158114611941578182fd5b809150509250929050565b6000806040838503121561195e578182fd5b61196783611696565b946020939093013593505050565b600080600060608486031215611989578081fd5b61199284611696565b95602085013595506040909401359392505050565b600080604083850312156119b9578182fd5b823567ffffffffffffffff808211156119d0578384fd5b818501915085601f8301126119e3578384fd5b813560206119f082611f51565b6040516119fd828261201f565b8381528281019150858301600585901b870184018b1015611a1c578889fd5b8896505b84871015611a4557611a3181611696565b835260019690960195918301918301611a20565b5096505086013592505080821115611a5b578283fd5b50611a68858286016116b2565b9150509250929050565b600060208284031215611a83578081fd5b81356117458161215f565b600060208284031215611a9f578081fd5b81516117458161215f565b600060208284031215611abb578081fd5b813567ffffffffffffffff811115611ad1578182fd5b8201601f81018413611ae1578182fd5b610a0784823560208401611638565b600060208284031215611b01578081fd5b5035919050565b6000815180845260208085019450808401835b83811015611b3757815187529582019590820190600101611b1b565b509495945050505050565b60008151808452611b5a816020860160208601611fb8565b601f01601f19169290920160200192915050565b7f68747470733a2f2f697066732e696f2f697066732f516d52583956726a63673281527f4c6746714e547a737931436379647270574b5a72627265676e70456433444e6960208201526357704d2f60e01b604082015260008251611bd9816044850160208701611fb8565b64173539b7b760d91b6044939091019283015250604901919050565b6001600160a01b0386811682528516602082015260a060408201819052600090611c2190830186611b08565b8281036060840152611c338186611b08565b90508281036080840152611c478185611b42565b98975050505050505050565b6001600160a01b03868116825285166020820152604081018490526060810183905260a060808201819052600090611c8d90830184611b42565b979650505050505050565b6020815260006117456020830184611b08565b604081526000611cbe6040830185611b08565b8281036020840152611cd08185611b08565b95945050505050565b6020815260006117456020830184611b42565b60208082526028908201527f455243313135353a204552433131353552656365697665722072656a656374656040820152676420746f6b656e7360c01b606082015260800190565b60208082526024908201527f455243313135353a206275726e20616d6f756e7420657863656564732062616c604082015263616e636560e01b606082015260800190565b60208082526029908201527f455243313135353a2063616c6c6572206973206e6f74206f776e6572206e6f7260408201526808185c1c1c9bdd995960ba1b606082015260800190565b60208082526025908201527f455243313135353a207472616e7366657220746f20746865207a65726f206164604082015264647265737360d81b606082015260800190565b60208082526023908201527f455243313135353a206275726e2066726f6d20746865207a65726f206164647260408201526265737360e81b606082015260800190565b6020808252602a908201527f455243313135353a20696e73756666696369656e742062616c616e636520666f60408201526939103a3930b739b332b960b11b606082015260800190565b6020808252818101527f4f776e61626c653a2063616c6c6572206973206e6f7420746865206f776e6572604082015260600190565b60208082526028908201527f455243313135353a2069647320616e6420616d6f756e7473206c656e677468206040820152670dad2e6dac2e8c6d60c31b606082015260800190565b60208082526021908201527f455243313135353a206d696e7420746f20746865207a65726f206164647265736040820152607360f81b606082015260800190565b600067ffffffffffffffff821115611f6b57611f6b6120a7565b5060051b60200190565b60008219821115611f8857611f8861207b565b500190565b600082611f9c57611f9c612091565b500490565b600082821015611fb357611fb361207b565b500390565b60005b83811015611fd3578181015183820152602001611fbb565b83811115610e435750506000910152565b600181811c90821680611ff857607f821691505b6020821081141561201957634e487b7160e01b600052602260045260246000fd5b50919050565b601f8201601f1916810167ffffffffffffffff81118282101715612045576120456120a7565b6040525050565b60006000198214156120605761206061207b565b5060010190565b60008261207657612076612091565b500690565b634e487b7160e01b600052601160045260246000fd5b634e487b7160e01b600052601260045260246000fd5b634e487b7160e01b600052604160045260246000fd5b600060033d11156120d257600481823e5160e01c5b90565b600060443d10156120e35790565b6040516003193d81016004833e81513d67ffffffffffffffff816024840111818411171561211357505050505090565b828501915081518181111561212b5750505050505090565b843d87010160208285010111156121455750505050505090565b6121546020828601018761201f565b509095945050505050565b6001600160e01b0319811681146103db57600080fdfea26469706673582212204abccf73064157c56d9fb6ecb016416cae0de113693cffeef760c79e10f7f1a964736f6c63430008040033",
  "linkReferences": {},
  "deployedLinkReferences": {}
}