{
  "_format": "hh-sol-artifact-1",
  "contractName": "Store",
  "sourceName": "contracts/Store.sol",
  "abi": [
    {
      "anonymous": false,
      "inputs": [
        {
          "indexed": true,
          "internalType": "address",
          "name": "owner",
          "type": "address"
        },
        {
          "indexed": true,
          "internalType": "address",
          "name": "approved",
          "type": "address"
        },
        {
          "indexed": true,
          "internalType": "uint256",
          "name": "tokenId",
          "type": "uint256"
        }
      ],
      "name": "Approval",
      "type": "event"
    },
    {
      "anonymous": false,
      "inputs": [
        {
          "indexed": true,
          "internalType": "address",
          "name": "owner",
          "type": "address"
        },
        {
          "indexed": true,
          "internalType": "address",
          "name": "operator",
          "type": "address"
        },
        {
          "indexed": false,
          "internalType": "bool",
          "name": "approved",
          "type": "bool"
        }
      ],
      "name": "ApprovalForAll",
      "type": "event"
    },
    {
      "anonymous": false,
      "inputs": [
        {
          "indexed": false,
          "internalType": "uint256",
          "name": "itemId",
          "type": "uint256"
        },
        {
          "indexed": true,
          "internalType": "address",
          "name": "nft",
          "type": "address"
        },
        {
          "indexed": false,
          "internalType": "uint256",
          "name": "tokenId",
          "type": "uint256"
        },
        {
          "indexed": false,
          "internalType": "uint256",
          "name": "price",
          "type": "uint256"
        },
        {
          "indexed": true,
          "internalType": "address",
          "name": "seller",
          "type": "address"
        },
        {
          "indexed": true,
          "internalType": "address",
          "name": "buyer",
          "type": "address"
        }
      ],
      "name": "Bought",
      "type": "event"
    },
    {
      "anonymous": false,
      "inputs": [
        {
          "indexed": false,
          "internalType": "uint256",
          "name": "itemId",
          "type": "uint256"
        },
        {
          "indexed": true,
          "internalType": "address",
          "name": "nft",
          "type": "address"
        },
        {
          "indexed": false,
          "internalType": "uint256",
          "name": "tokenId",
          "type": "uint256"
        },
        {
          "indexed": false,
          "internalType": "uint256",
          "name": "price",
          "type": "uint256"
        },
        {
          "indexed": true,
          "internalType": "address",
          "name": "seller",
          "type": "address"
        }
      ],
      "name": "Offered",
      "type": "event"
    },
    {
      "anonymous": false,
      "inputs": [
        {
          "indexed": true,
          "internalType": "address",
          "name": "previousOwner",
          "type": "address"
        },
        {
          "indexed": true,
          "internalType": "address",
          "name": "newOwner",
          "type": "address"
        }
      ],
      "name": "OwnershipTransferred",
      "type": "event"
    },
    {
      "anonymous": false,
      "inputs": [
        {
          "indexed": true,
          "internalType": "address",
          "name": "from",
          "type": "address"
        },
        {
          "indexed": true,
          "internalType": "address",
          "name": "to",
          "type": "address"
        },
        {
          "indexed": true,
          "internalType": "uint256",
          "name": "tokenId",
          "type": "uint256"
        }
      ],
      "name": "Transfer",
      "type": "event"
    },
    {
      "inputs": [
        {
          "internalType": "address",
          "name": "to",
          "type": "address"
        },
        {
          "internalType": "uint256",
          "name": "tokenId",
          "type": "uint256"
        }
      ],
      "name": "approve",
      "outputs": [],
      "stateMutability": "nonpayable",
      "type": "function"
    },
    {
      "inputs": [
        {
          "internalType": "address",
          "name": "owner",
          "type": "address"
        }
      ],
      "name": "balanceOf",
      "outputs": [
        {
          "internalType": "uint256",
          "name": "",
          "type": "uint256"
        }
      ],
      "stateMutability": "view",
      "type": "function"
    },
    {
      "inputs": [
        {
          "internalType": "string",
          "name": "tokenURI",
          "type": "string"
        }
      ],
      "name": "createGlobeArtNFT",
      "outputs": [
        {
          "internalType": "uint256",
          "name": "",
          "type": "uint256"
        }
      ],
      "stateMutability": "nonpayable",
      "type": "function"
    },
    {
      "inputs": [
        {
          "internalType": "uint256",
          "name": "tokenId",
          "type": "uint256"
        }
      ],
      "name": "getApproved",
      "outputs": [
        {
          "internalType": "address",
          "name": "",
          "type": "address"
        }
      ],
      "stateMutability": "view",
      "type": "function"
    },
    {
      "inputs": [
        {
          "internalType": "address",
          "name": "owner",
          "type": "address"
        },
        {
          "internalType": "address",
          "name": "operator",
          "type": "address"
        }
      ],
      "name": "isApprovedForAll",
      "outputs": [
        {
          "internalType": "bool",
          "name": "",
          "type": "bool"
        }
      ],
      "stateMutability": "view",
      "type": "function"
    },
    {
      "inputs": [],
      "name": "itemCount",
      "outputs": [
        {
          "internalType": "uint256",
          "name": "",
          "type": "uint256"
        }
      ],
      "stateMutability": "view",
      "type": "function"
    },
    {
      "inputs": [
        {
          "internalType": "uint256",
          "name": "",
          "type": "uint256"
        }
      ],
      "name": "items",
      "outputs": [
        {
          "internalType": "uint256",
          "name": "itemId",
          "type": "uint256"
        },
        {
          "internalType": "contract IERC721",
          "name": "nft",
          "type": "address"
        },
        {
          "internalType": "uint256",
          "name": "tokenId",
          "type": "uint256"
        },
        {
          "internalType": "string",
          "name": "collection",
          "type": "string"
        },
        {
          "internalType": "uint256",
          "name": "price",
          "type": "uint256"
        },
        {
          "internalType": "address payable",
          "name": "seller",
          "type": "address"
        },
        {
          "internalType": "bool",
          "name": "sold",
          "type": "bool"
        }
      ],
      "stateMutability": "view",
      "type": "function"
    },
    {
      "inputs": [
        {
          "internalType": "contract IERC721",
          "name": "_nft",
          "type": "address"
        },
        {
          "internalType": "uint256",
          "name": "_tokenId",
          "type": "uint256"
        },
        {
          "internalType": "string",
          "name": "_collection",
          "type": "string"
        },
        {
          "internalType": "uint256",
          "name": "_price",
          "type": "uint256"
        }
      ],
      "name": "makeItem",
      "outputs": [],
      "stateMutability": "nonpayable",
      "type": "function"
    },
    {
      "inputs": [],
      "name": "name",
      "outputs": [
        {
          "internalType": "string",
          "name": "",
          "type": "string"
        }
      ],
      "stateMutability": "view",
      "type": "function"
    },
    {
      "inputs": [],
      "name": "owner",
      "outputs": [
        {
          "internalType": "address",
          "name": "",
          "type": "address"
        }
      ],
      "stateMutability": "view",
      "type": "function"
    },
    {
      "inputs": [
        {
          "internalType": "uint256",
          "name": "tokenId",
          "type": "uint256"
        }
      ],
      "name": "ownerOf",
      "outputs": [
        {
          "internalType": "address",
          "name": "",
          "type": "address"
        }
      ],
      "stateMutability": "view",
      "type": "function"
    },
    {
      "inputs": [
        {
          "internalType": "uint256",
          "name": "_itemId",
          "type": "uint256"
        }
      ],
      "name": "purchaseItem",
      "outputs": [],
      "stateMutability": "payable",
      "type": "function"
    },
    {
      "inputs": [],
      "name": "renounceOwnership",
      "outputs": [],
      "stateMutability": "nonpayable",
      "type": "function"
    },
    {
      "inputs": [
        {
          "internalType": "address",
          "name": "from",
          "type": "address"
        },
        {
          "internalType": "address",
          "name": "to",
          "type": "address"
        },
        {
          "internalType": "uint256",
          "name": "tokenId",
          "type": "uint256"
        }
      ],
      "name": "safeTransferFrom",
      "outputs": [],
      "stateMutability": "nonpayable",
      "type": "function"
    },
    {
      "inputs": [
        {
          "internalType": "address",
          "name": "from",
          "type": "address"
        },
        {
          "internalType": "address",
          "name": "to",
          "type": "address"
        },
        {
          "internalType": "uint256",
          "name": "tokenId",
          "type": "uint256"
        },
        {
          "internalType": "bytes",
          "name": "_data",
          "type": "bytes"
        }
      ],
      "name": "safeTransferFrom",
      "outputs": [],
      "stateMutability": "nonpayable",
      "type": "function"
    },
    {
      "inputs": [
        {
          "internalType": "address",
          "name": "operator",
          "type": "address"
        },
        {
          "internalType": "bool",
          "name": "approved",
          "type": "bool"
        }
      ],
      "name": "setApprovalForAll",
      "outputs": [],
      "stateMutability": "nonpayable",
      "type": "function"
    },
    {
      "inputs": [
        {
          "internalType": "bytes4",
          "name": "interfaceId",
          "type": "bytes4"
        }
      ],
      "name": "supportsInterface",
      "outputs": [
        {
          "internalType": "bool",
          "name": "",
          "type": "bool"
        }
      ],
      "stateMutability": "view",
      "type": "function"
    },
    {
      "inputs": [],
      "name": "symbol",
      "outputs": [
        {
          "internalType": "string",
          "name": "",
          "type": "string"
        }
      ],
      "stateMutability": "view",
      "type": "function"
    },
    {
      "inputs": [],
      "name": "tokenCount",
      "outputs": [
        {
          "internalType": "uint256",
          "name": "",
          "type": "uint256"
        }
      ],
      "stateMutability": "view",
      "type": "function"
    },
    {
      "inputs": [
        {
          "internalType": "uint256",
          "name": "tokenId",
          "type": "uint256"
        }
      ],
      "name": "tokenURI",
      "outputs": [
        {
          "internalType": "string",
          "name": "",
          "type": "string"
        }
      ],
      "stateMutability": "view",
      "type": "function"
    },
    {
      "inputs": [
        {
          "internalType": "address",
          "name": "from",
          "type": "address"
        },
        {
          "internalType": "address",
          "name": "to",
          "type": "address"
        },
        {
          "internalType": "uint256",
          "name": "tokenId",
          "type": "uint256"
        }
      ],
      "name": "transferFrom",
      "outputs": [],
      "stateMutability": "nonpayable",
      "type": "function"
    },
    {
      "inputs": [
        {
          "internalType": "address",
          "name": "newOwner",
          "type": "address"
        }
      ],
      "name": "transferOwnership",
      "outputs": [],
      "stateMutability": "nonpayable",
      "type": "function"
    }
  ],
  "bytecode": "0x60806040523480156200001157600080fd5b506040518060400160405280600b81526020017f676c6f62654172744e46540000000000000000000000000000000000000000008152506040518060400160405280600581526020017f47414e4654000000000000000000000000000000000000000000000000000000815250600160008190555081600190805190602001906200009e929190620001ae565b508060029080519060200190620000b7929190620001ae565b505050620000da620000ce620000e060201b60201c565b620000e860201b60201c565b620002c3565b600033905090565b6000600860009054906101000a900473ffffffffffffffffffffffffffffffffffffffff16905081600860006101000a81548173ffffffffffffffffffffffffffffffffffffffff021916908373ffffffffffffffffffffffffffffffffffffffff1602179055508173ffffffffffffffffffffffffffffffffffffffff168173ffffffffffffffffffffffffffffffffffffffff167f8be0079c531659141344cd1fd0a4f28419497f9722a3daafe3b4186f6b6457e060405160405180910390a35050565b828054620001bc906200025e565b90600052602060002090601f016020900481019282620001e057600085556200022c565b82601f10620001fb57805160ff19168380011785556200022c565b828001600101855582156200022c579182015b828111156200022b5782518255916020019190600101906200020e565b5b5090506200023b91906200023f565b5090565b5b808211156200025a57600081600090555060010162000240565b5090565b600060028204905060018216806200027757607f821691505b602082108114156200028e576200028d62000294565b5b50919050565b7f4e487b7100000000000000000000000000000000000000000000000000000000600052602260045260246000fd5b613dd480620002d36000396000f3fe6080604052600436106101355760003560e01c80638da5cb5b116100ab578063b88d4fde1161006f578063b88d4fde14610426578063bfb231d21461044f578063c87b56dd14610492578063d38ea5bf146104cf578063e985e9c5146104eb578063f2fde38b1461052857610135565b80638da5cb5b1461033f57806395d89b411461036a5780639f181b5e14610395578063a05f09fb146103c0578063a22cb465146103fd57610135565b80633c28368c116100fd5780633c28368c1461023157806342842e0e1461025a5780636352211e146102835780636bfb0d01146102c057806370a08231146102eb578063715018a61461032857610135565b806301ffc9a71461013a57806306fdde0314610177578063081812fc146101a2578063095ea7b3146101df57806323b872dd14610208575b600080fd5b34801561014657600080fd5b50610161600480360381019061015c9190612924565b610551565b60405161016e9190612f30565b60405180910390f35b34801561018357600080fd5b5061018c610633565b6040516101999190612f4b565b60405180910390f35b3480156101ae57600080fd5b506101c960048036038101906101c49190612a32565b6106c5565b6040516101d69190612e92565b60405180910390f35b3480156101eb57600080fd5b50610206600480360381019061020191906128e8565b61074a565b005b34801561021457600080fd5b5061022f600480360381019061022a91906127e2565b610862565b005b34801561023d57600080fd5b5061025860048036038101906102539190612976565b6108c2565b005b34801561026657600080fd5b50610281600480360381019061027c91906127e2565b610bde565b005b34801561028f57600080fd5b506102aa60048036038101906102a59190612a32565b610bfe565b6040516102b79190612e92565b60405180910390f35b3480156102cc57600080fd5b506102d5610cb0565b6040516102e2919061324d565b60405180910390f35b3480156102f757600080fd5b50610312600480360381019061030d919061277d565b610cb6565b60405161031f919061324d565b60405180910390f35b34801561033457600080fd5b5061033d610d6e565b005b34801561034b57600080fd5b50610354610df6565b6040516103619190612e92565b60405180910390f35b34801561037657600080fd5b5061037f610e20565b60405161038c9190612f4b565b60405180910390f35b3480156103a157600080fd5b506103aa610eb2565b6040516103b7919061324d565b60405180910390f35b3480156103cc57600080fd5b506103e760048036038101906103e291906129f1565b610eb8565b6040516103f4919061324d565b60405180910390f35b34801561040957600080fd5b50610424600480360381019061041f91906128ac565b610f70565b005b34801561043257600080fd5b5061044d60048036038101906104489190612831565b610f86565b005b34801561045b57600080fd5b5061047660048036038101906104719190612a32565b610fe8565b6040516104899796959493929190613268565b60405180910390f35b34801561049e57600080fd5b506104b960048036038101906104b49190612a32565b6110ff565b6040516104c69190612f4b565b60405180910390f35b6104e960048036038101906104e49190612a32565b611251565b005b3480156104f757600080fd5b50610512600480360381019061050d91906127a6565b61159f565b60405161051f9190612f30565b60405180910390f35b34801561053457600080fd5b5061054f600480360381019061054a919061277d565b611633565b005b60007f80ac58cd000000000000000000000000000000000000000000000000000000007bffffffffffffffffffffffffffffffffffffffffffffffffffffffff1916827bffffffffffffffffffffffffffffffffffffffffffffffffffffffff1916148061061c57507f5b5e139f000000000000000000000000000000000000000000000000000000007bffffffffffffffffffffffffffffffffffffffffffffffffffffffff1916827bffffffffffffffffffffffffffffffffffffffffffffffffffffffff1916145b8061062c575061062b8261172b565b5b9050919050565b60606001805461064290613598565b80601f016020809104026020016040519081016040528092919081815260200182805461066e90613598565b80156106bb5780601f10610690576101008083540402835291602001916106bb565b820191906000526020600020905b81548152906001019060200180831161069e57829003601f168201915b5050505050905090565b60006106d082611795565b61070f576040517f08c379a00000000000000000000000000000000000000000000000000000000081526004016107069061318d565b60405180910390fd5b6005600083815260200190815260200160002060009054906101000a900473ffffffffffffffffffffffffffffffffffffffff169050919050565b600061075582610bfe565b90508073ffffffffffffffffffffffffffffffffffffffff168373ffffffffffffffffffffffffffffffffffffffff1614156107c6576040517f08c379a00000000000000000000000000000000000000000000000000000000081526004016107bd906131ed565b60405180910390fd5b8073ffffffffffffffffffffffffffffffffffffffff166107e5611801565b73ffffffffffffffffffffffffffffffffffffffff16148061081457506108138161080e611801565b61159f565b5b610853576040517f08c379a000000000000000000000000000000000000000000000000000000000815260040161084a906130cd565b60405180910390fd5b61085d8383611809565b505050565b61087361086d611801565b826118c2565b6108b2576040517f08c379a00000000000000000000000000000000000000000000000000000000081526004016108a99061320d565b60405180910390fd5b6108bd8383836119a0565b505050565b6108ca611801565b73ffffffffffffffffffffffffffffffffffffffff166108e8610df6565b73ffffffffffffffffffffffffffffffffffffffff161461093e576040517f08c379a0000000000000000000000000000000000000000000000000000000008152600401610935906131ad565b60405180910390fd5b60008111610981576040517f08c379a000000000000000000000000000000000000000000000000000000000815260040161097890612fad565b60405180910390fd5b600a6000815480929190610994906135fb565b91905055508373ffffffffffffffffffffffffffffffffffffffff166323b872dd3330866040518463ffffffff1660e01b81526004016109d693929190612ead565b600060405180830381600087803b1580156109f057600080fd5b505af1158015610a04573d6000803e3d6000fd5b505050506040518060e00160405280600a5481526020018573ffffffffffffffffffffffffffffffffffffffff1681526020018481526020018381526020018281526020013373ffffffffffffffffffffffffffffffffffffffff16815260200160001515815250600b6000600a5481526020019081526020016000206000820151816000015560208201518160010160006101000a81548173ffffffffffffffffffffffffffffffffffffffff021916908373ffffffffffffffffffffffffffffffffffffffff160217905550604082015181600201556060820151816003019080519060200190610af892919061258c565b506080820151816004015560a08201518160050160006101000a81548173ffffffffffffffffffffffffffffffffffffffff021916908373ffffffffffffffffffffffffffffffffffffffff16021790555060c08201518160050160146101000a81548160ff0219169083151502179055509050503373ffffffffffffffffffffffffffffffffffffffff168473ffffffffffffffffffffffffffffffffffffffff167f655a0cf9c8db81512be9a76dc1c5ae5380b8816ce6ad659cd61b715e2999d59a600a548685604051610bd0939291906132de565b60405180910390a350505050565b610bf983838360405180602001604052806000815250610f86565b505050565b6000806003600084815260200190815260200160002060009054906101000a900473ffffffffffffffffffffffffffffffffffffffff169050600073ffffffffffffffffffffffffffffffffffffffff168173ffffffffffffffffffffffffffffffffffffffff161415610ca7576040517f08c379a0000000000000000000000000000000000000000000000000000000008152600401610c9e9061310d565b60405180910390fd5b80915050919050565b600a5481565b60008073ffffffffffffffffffffffffffffffffffffffff168273ffffffffffffffffffffffffffffffffffffffff161415610d27576040517f08c379a0000000000000000000000000000000000000000000000000000000008152600401610d1e906130ed565b60405180910390fd5b600460008373ffffffffffffffffffffffffffffffffffffffff1673ffffffffffffffffffffffffffffffffffffffff168152602001908152602001600020549050919050565b610d76611801565b73ffffffffffffffffffffffffffffffffffffffff16610d94610df6565b73ffffffffffffffffffffffffffffffffffffffff1614610dea576040517f08c379a0000000000000000000000000000000000000000000000000000000008152600401610de1906131ad565b60405180910390fd5b610df46000611c07565b565b6000600860009054906101000a900473ffffffffffffffffffffffffffffffffffffffff16905090565b606060028054610e2f90613598565b80601f0160208091040260200160405190810160405280929190818152602001828054610e5b90613598565b8015610ea85780601f10610e7d57610100808354040283529160200191610ea8565b820191906000526020600020905b815481529060010190602001808311610e8b57829003601f168201915b5050505050905090565b60095481565b6000610ec2611801565b73ffffffffffffffffffffffffffffffffffffffff16610ee0610df6565b73ffffffffffffffffffffffffffffffffffffffff1614610f36576040517f08c379a0000000000000000000000000000000000000000000000000000000008152600401610f2d906131ad565b60405180910390fd5b60096000815480929190610f49906135fb565b9190505550610f5a33600954611ccd565b610f6660095483611ceb565b6009549050919050565b610f82610f7b611801565b8383611d5f565b5050565b610f97610f91611801565b836118c2565b610fd6576040517f08c379a0000000000000000000000000000000000000000000000000000000008152600401610fcd9061320d565b60405180910390fd5b610fe284848484611ecc565b50505050565b600b6020528060005260406000206000915090508060000154908060010160009054906101000a900473ffffffffffffffffffffffffffffffffffffffff169080600201549080600301805461103d90613598565b80601f016020809104026020016040519081016040528092919081815260200182805461106990613598565b80156110b65780601f1061108b576101008083540402835291602001916110b6565b820191906000526020600020905b81548152906001019060200180831161109957829003601f168201915b5050505050908060040154908060050160009054906101000a900473ffffffffffffffffffffffffffffffffffffffff16908060050160149054906101000a900460ff16905087565b606061110a82611795565b611149576040517f08c379a00000000000000000000000000000000000000000000000000000000081526004016111409061316d565b60405180910390fd5b600060076000848152602001908152602001600020805461116990613598565b80601f016020809104026020016040519081016040528092919081815260200182805461119590613598565b80156111e25780601f106111b7576101008083540402835291602001916111e2565b820191906000526020600020905b8154815290600101906020018083116111c557829003601f168201915b5050505050905060006111f3611f28565b905060008151141561120957819250505061124c565b60008251111561123e578082604051602001611226929190612e6e565b6040516020818303038152906040529250505061124c565b61124784611f3f565b925050505b919050565b60026000541415611297576040517f08c379a000000000000000000000000000000000000000000000000000000000815260040161128e9061322d565b60405180910390fd5b60026000819055506000600b600083815260200190815260200160002090506000821180156112c85750600a548211155b611307576040517f08c379a00000000000000000000000000000000000000000000000000000000081526004016112fe906130ad565b60405180910390fd5b806004015434101561134e576040517f08c379a000000000000000000000000000000000000000000000000000000000815260040161134590612f8d565b60405180910390fd5b8060050160149054906101000a900460ff16156113a0576040517f08c379a000000000000000000000000000000000000000000000000000000000815260040161139790612f6d565b60405180910390fd5b8060050160009054906101000a900473ffffffffffffffffffffffffffffffffffffffff1673ffffffffffffffffffffffffffffffffffffffff166108fc82600401549081150290604051600060405180830381858888f1935050505015801561140e573d6000803e3d6000fd5b5060018160050160146101000a81548160ff0219169083151502179055508060010160009054906101000a900473ffffffffffffffffffffffffffffffffffffffff1673ffffffffffffffffffffffffffffffffffffffff166323b872dd303384600201546040518463ffffffff1660e01b815260040161149193929190612ead565b600060405180830381600087803b1580156114ab57600080fd5b505af11580156114bf573d6000803e3d6000fd5b505050503373ffffffffffffffffffffffffffffffffffffffff168160050160009054906101000a900473ffffffffffffffffffffffffffffffffffffffff1673ffffffffffffffffffffffffffffffffffffffff168260010160009054906101000a900473ffffffffffffffffffffffffffffffffffffffff1673ffffffffffffffffffffffffffffffffffffffff167f8b4c9c8a607d67b321582dd8461041b1dc2ceeca70c8b7f37f8e02095cf2e76d858560020154866004015460405161158b939291906132de565b60405180910390a450600160008190555050565b6000600660008473ffffffffffffffffffffffffffffffffffffffff1673ffffffffffffffffffffffffffffffffffffffff16815260200190815260200160002060008373ffffffffffffffffffffffffffffffffffffffff1673ffffffffffffffffffffffffffffffffffffffff16815260200190815260200160002060009054906101000a900460ff16905092915050565b61163b611801565b73ffffffffffffffffffffffffffffffffffffffff16611659610df6565b73ffffffffffffffffffffffffffffffffffffffff16146116af576040517f08c379a00000000000000000000000000000000000000000000000000000000081526004016116a6906131ad565b60405180910390fd5b600073ffffffffffffffffffffffffffffffffffffffff168173ffffffffffffffffffffffffffffffffffffffff16141561171f576040517f08c379a000000000000000000000000000000000000000000000000000000000815260040161171690612fed565b60405180910390fd5b61172881611c07565b50565b60007f01ffc9a7000000000000000000000000000000000000000000000000000000007bffffffffffffffffffffffffffffffffffffffffffffffffffffffff1916827bffffffffffffffffffffffffffffffffffffffffffffffffffffffff1916149050919050565b60008073ffffffffffffffffffffffffffffffffffffffff166003600084815260200190815260200160002060009054906101000a900473ffffffffffffffffffffffffffffffffffffffff1673ffffffffffffffffffffffffffffffffffffffff1614159050919050565b600033905090565b816005600083815260200190815260200160002060006101000a81548173ffffffffffffffffffffffffffffffffffffffff021916908373ffffffffffffffffffffffffffffffffffffffff160217905550808273ffffffffffffffffffffffffffffffffffffffff1661187c83610bfe565b73ffffffffffffffffffffffffffffffffffffffff167f8c5be1e5ebec7d5bd14f71427d1e84f3dd0314c0f7b2291e5b200ac8c7c3b92560405160405180910390a45050565b60006118cd82611795565b61190c576040517f08c379a00000000000000000000000000000000000000000000000000000000081526004016119039061308d565b60405180910390fd5b600061191783610bfe565b90508073ffffffffffffffffffffffffffffffffffffffff168473ffffffffffffffffffffffffffffffffffffffff1614806119595750611958818561159f565b5b8061199757508373ffffffffffffffffffffffffffffffffffffffff1661197f846106c5565b73ffffffffffffffffffffffffffffffffffffffff16145b91505092915050565b8273ffffffffffffffffffffffffffffffffffffffff166119c082610bfe565b73ffffffffffffffffffffffffffffffffffffffff1614611a16576040517f08c379a0000000000000000000000000000000000000000000000000000000008152600401611a0d9061300d565b60405180910390fd5b600073ffffffffffffffffffffffffffffffffffffffff168273ffffffffffffffffffffffffffffffffffffffff161415611a86576040517f08c379a0000000000000000000000000000000000000000000000000000000008152600401611a7d9061304d565b60405180910390fd5b611a91838383611fe6565b611a9c600082611809565b6001600460008573ffffffffffffffffffffffffffffffffffffffff1673ffffffffffffffffffffffffffffffffffffffff1681526020019081526020016000206000828254611aec9190613466565b925050819055506001600460008473ffffffffffffffffffffffffffffffffffffffff1673ffffffffffffffffffffffffffffffffffffffff1681526020019081526020016000206000828254611b4391906133df565b92505081905550816003600083815260200190815260200160002060006101000a81548173ffffffffffffffffffffffffffffffffffffffff021916908373ffffffffffffffffffffffffffffffffffffffff160217905550808273ffffffffffffffffffffffffffffffffffffffff168473ffffffffffffffffffffffffffffffffffffffff167fddf252ad1be2c89b69c2b068fc378daa952ba7f163c4a11628f55a4df523b3ef60405160405180910390a4611c02838383611feb565b505050565b6000600860009054906101000a900473ffffffffffffffffffffffffffffffffffffffff16905081600860006101000a81548173ffffffffffffffffffffffffffffffffffffffff021916908373ffffffffffffffffffffffffffffffffffffffff1602179055508173ffffffffffffffffffffffffffffffffffffffff168173ffffffffffffffffffffffffffffffffffffffff167f8be0079c531659141344cd1fd0a4f28419497f9722a3daafe3b4186f6b6457e060405160405180910390a35050565b611ce7828260405180602001604052806000815250611ff0565b5050565b611cf482611795565b611d33576040517f08c379a0000000000000000000000000000000000000000000000000000000008152600401611d2a9061312d565b60405180910390fd5b80600760008481526020019081526020016000209080519060200190611d5a92919061258c565b505050565b8173ffffffffffffffffffffffffffffffffffffffff168373ffffffffffffffffffffffffffffffffffffffff161415611dce576040517f08c379a0000000000000000000000000000000000000000000000000000000008152600401611dc59061306d565b60405180910390fd5b80600660008573ffffffffffffffffffffffffffffffffffffffff1673ffffffffffffffffffffffffffffffffffffffff16815260200190815260200160002060008473ffffffffffffffffffffffffffffffffffffffff1673ffffffffffffffffffffffffffffffffffffffff16815260200190815260200160002060006101000a81548160ff0219169083151502179055508173ffffffffffffffffffffffffffffffffffffffff168373ffffffffffffffffffffffffffffffffffffffff167f17307eab39ab6107e8899845ad3d59bd9653f200f220920489ca2b5937696c3183604051611ebf9190612f30565b60405180910390a3505050565b611ed78484846119a0565b611ee38484848461204b565b611f22576040517f08c379a0000000000000000000000000000000000000000000000000000000008152600401611f1990612fcd565b60405180910390fd5b50505050565b606060405180602001604052806000815250905090565b6060611f4a82611795565b611f89576040517f08c379a0000000000000000000000000000000000000000000000000000000008152600401611f80906131cd565b60405180910390fd5b6000611f93611f28565b90506000815111611fb35760405180602001604052806000815250611fde565b80611fbd846121e2565b604051602001611fce929190612e6e565b6040516020818303038152906040525b915050919050565b505050565b505050565b611ffa838361238f565b612007600084848461204b565b612046576040517f08c379a000000000000000000000000000000000000000000000000000000000815260040161203d90612fcd565b60405180910390fd5b505050565b600061206c8473ffffffffffffffffffffffffffffffffffffffff16612569565b156121d5578373ffffffffffffffffffffffffffffffffffffffff1663150b7a02612095611801565b8786866040518563ffffffff1660e01b81526004016120b79493929190612ee4565b602060405180830381600087803b1580156120d157600080fd5b505af192505050801561210257506040513d601f19601f820116820180604052508101906120ff919061294d565b60015b612185573d8060008114612132576040519150601f19603f3d011682016040523d82523d6000602084013e612137565b606091505b5060008151141561217d576040517f08c379a000000000000000000000000000000000000000000000000000000000815260040161217490612fcd565b60405180910390fd5b805181602001fd5b63150b7a0260e01b7bffffffffffffffffffffffffffffffffffffffffffffffffffffffff1916817bffffffffffffffffffffffffffffffffffffffffffffffffffffffff1916149150506121da565b600190505b949350505050565b6060600082141561222a576040518060400160405280600181526020017f3000000000000000000000000000000000000000000000000000000000000000815250905061238a565b600082905060005b6000821461225c578080612245906135fb565b915050600a826122559190613435565b9150612232565b60008167ffffffffffffffff81111561229e577f4e487b7100000000000000000000000000000000000000000000000000000000600052604160045260246000fd5b6040519080825280601f01601f1916602001820160405280156122d05781602001600182028036833780820191505090505b5090505b60008514612383576001826122e99190613466565b9150600a856122f89190613644565b603061230491906133df565b60f81b818381518110612340577f4e487b7100000000000000000000000000000000000000000000000000000000600052603260045260246000fd5b60200101907effffffffffffffffffffffffffffffffffffffffffffffffffffffffffffff1916908160001a905350600a8561237c9190613435565b94506122d4565b8093505050505b919050565b600073ffffffffffffffffffffffffffffffffffffffff168273ffffffffffffffffffffffffffffffffffffffff1614156123ff576040517f08c379a00000000000000000000000000000000000000000000000000000000081526004016123f69061314d565b60405180910390fd5b61240881611795565b15612448576040517f08c379a000000000000000000000000000000000000000000000000000000000815260040161243f9061302d565b60405180910390fd5b61245460008383611fe6565b6001600460008473ffffffffffffffffffffffffffffffffffffffff1673ffffffffffffffffffffffffffffffffffffffff16815260200190815260200160002060008282546124a491906133df565b92505081905550816003600083815260200190815260200160002060006101000a81548173ffffffffffffffffffffffffffffffffffffffff021916908373ffffffffffffffffffffffffffffffffffffffff160217905550808273ffffffffffffffffffffffffffffffffffffffff16600073ffffffffffffffffffffffffffffffffffffffff167fddf252ad1be2c89b69c2b068fc378daa952ba7f163c4a11628f55a4df523b3ef60405160405180910390a461256560008383611feb565b5050565b6000808273ffffffffffffffffffffffffffffffffffffffff163b119050919050565b82805461259890613598565b90600052602060002090601f0160209004810192826125ba5760008555612601565b82601f106125d357805160ff1916838001178555612601565b82800160010185558215612601579182015b828111156126005782518255916020019190600101906125e5565b5b50905061260e9190612612565b5090565b5b8082111561262b576000816000905550600101612613565b5090565b600061264261263d8461333a565b613315565b90508281526020810184848401111561265a57600080fd5b612665848285613556565b509392505050565b600061268061267b8461336b565b613315565b90508281526020810184848401111561269857600080fd5b6126a3848285613556565b509392505050565b6000813590506126ba81613d2b565b92915050565b6000813590506126cf81613d42565b92915050565b6000813590506126e481613d59565b92915050565b6000815190506126f981613d59565b92915050565b600082601f83011261271057600080fd5b813561272084826020860161262f565b91505092915050565b60008135905061273881613d70565b92915050565b600082601f83011261274f57600080fd5b813561275f84826020860161266d565b91505092915050565b60008135905061277781613d87565b92915050565b60006020828403121561278f57600080fd5b600061279d848285016126ab565b91505092915050565b600080604083850312156127b957600080fd5b60006127c7858286016126ab565b92505060206127d8858286016126ab565b9150509250929050565b6000806000606084860312156127f757600080fd5b6000612805868287016126ab565b9350506020612816868287016126ab565b925050604061282786828701612768565b9150509250925092565b6000806000806080858703121561284757600080fd5b6000612855878288016126ab565b9450506020612866878288016126ab565b935050604061287787828801612768565b925050606085013567ffffffffffffffff81111561289457600080fd5b6128a0878288016126ff565b91505092959194509250565b600080604083850312156128bf57600080fd5b60006128cd858286016126ab565b92505060206128de858286016126c0565b9150509250929050565b600080604083850312156128fb57600080fd5b6000612909858286016126ab565b925050602061291a85828601612768565b9150509250929050565b60006020828403121561293657600080fd5b6000612944848285016126d5565b91505092915050565b60006020828403121561295f57600080fd5b600061296d848285016126ea565b91505092915050565b6000806000806080858703121561298c57600080fd5b600061299a87828801612729565b94505060206129ab87828801612768565b935050604085013567ffffffffffffffff8111156129c857600080fd5b6129d48782880161273e565b92505060606129e587828801612768565b91505092959194509250565b600060208284031215612a0357600080fd5b600082013567ffffffffffffffff811115612a1d57600080fd5b612a298482850161273e565b91505092915050565b600060208284031215612a4457600080fd5b6000612a5284828501612768565b91505092915050565b612a64816134ac565b82525050565b612a738161349a565b82525050565b612a82816134be565b82525050565b6000612a938261339c565b612a9d81856133b2565b9350612aad818560208601613565565b612ab681613731565b840191505092915050565b612aca81613532565b82525050565b6000612adb826133a7565b612ae581856133c3565b9350612af5818560208601613565565b612afe81613731565b840191505092915050565b6000612b14826133a7565b612b1e81856133d4565b9350612b2e818560208601613565565b80840191505092915050565b6000612b476011836133c3565b9150612b5282613742565b602082019050919050565b6000612b6a6024836133c3565b9150612b758261376b565b604082019050919050565b6000612b8d601f836133c3565b9150612b98826137ba565b602082019050919050565b6000612bb06032836133c3565b9150612bbb826137e3565b604082019050919050565b6000612bd36026836133c3565b9150612bde82613832565b604082019050919050565b6000612bf66025836133c3565b9150612c0182613881565b604082019050919050565b6000612c19601c836133c3565b9150612c24826138d0565b602082019050919050565b6000612c3c6024836133c3565b9150612c47826138f9565b604082019050919050565b6000612c5f6019836133c3565b9150612c6a82613948565b602082019050919050565b6000612c82602c836133c3565b9150612c8d82613971565b604082019050919050565b6000612ca56012836133c3565b9150612cb0826139c0565b602082019050919050565b6000612cc86038836133c3565b9150612cd3826139e9565b604082019050919050565b6000612ceb602a836133c3565b9150612cf682613a38565b604082019050919050565b6000612d0e6029836133c3565b9150612d1982613a87565b604082019050919050565b6000612d31602e836133c3565b9150612d3c82613ad6565b604082019050919050565b6000612d546020836133c3565b9150612d5f82613b25565b602082019050919050565b6000612d776031836133c3565b9150612d8282613b4e565b604082019050919050565b6000612d9a602c836133c3565b9150612da582613b9d565b604082019050919050565b6000612dbd6020836133c3565b9150612dc882613bec565b602082019050919050565b6000612de0602f836133c3565b9150612deb82613c15565b604082019050919050565b6000612e036021836133c3565b9150612e0e82613c64565b604082019050919050565b6000612e266031836133c3565b9150612e3182613cb3565b604082019050919050565b6000612e49601f836133c3565b9150612e5482613d02565b602082019050919050565b612e6881613528565b82525050565b6000612e7a8285612b09565b9150612e868284612b09565b91508190509392505050565b6000602082019050612ea76000830184612a6a565b92915050565b6000606082019050612ec26000830186612a6a565b612ecf6020830185612a6a565b612edc6040830184612e5f565b949350505050565b6000608082019050612ef96000830187612a6a565b612f066020830186612a6a565b612f136040830185612e5f565b8181036060830152612f258184612a88565b905095945050505050565b6000602082019050612f456000830184612a79565b92915050565b60006020820190508181036000830152612f658184612ad0565b905092915050565b60006020820190508181036000830152612f8681612b3a565b9050919050565b60006020820190508181036000830152612fa681612b5d565b9050919050565b60006020820190508181036000830152612fc681612b80565b9050919050565b60006020820190508181036000830152612fe681612ba3565b9050919050565b6000602082019050818103600083015261300681612bc6565b9050919050565b6000602082019050818103600083015261302681612be9565b9050919050565b6000602082019050818103600083015261304681612c0c565b9050919050565b6000602082019050818103600083015261306681612c2f565b9050919050565b6000602082019050818103600083015261308681612c52565b9050919050565b600060208201905081810360008301526130a681612c75565b9050919050565b600060208201905081810360008301526130c681612c98565b9050919050565b600060208201905081810360008301526130e681612cbb565b9050919050565b6000602082019050818103600083015261310681612cde565b9050919050565b6000602082019050818103600083015261312681612d01565b9050919050565b6000602082019050818103600083015261314681612d24565b9050919050565b6000602082019050818103600083015261316681612d47565b9050919050565b6000602082019050818103600083015261318681612d6a565b9050919050565b600060208201905081810360008301526131a681612d8d565b9050919050565b600060208201905081810360008301526131c681612db0565b9050919050565b600060208201905081810360008301526131e681612dd3565b9050919050565b6000602082019050818103600083015261320681612df6565b9050919050565b6000602082019050818103600083015261322681612e19565b9050919050565b6000602082019050818103600083015261324681612e3c565b9050919050565b60006020820190506132626000830184612e5f565b92915050565b600060e08201905061327d600083018a612e5f565b61328a6020830189612ac1565b6132976040830188612e5f565b81810360608301526132a98187612ad0565b90506132b86080830186612e5f565b6132c560a0830185612a5b565b6132d260c0830184612a79565b98975050505050505050565b60006060820190506132f36000830186612e5f565b6133006020830185612e5f565b61330d6040830184612e5f565b949350505050565b600061331f613330565b905061332b82826135ca565b919050565b6000604051905090565b600067ffffffffffffffff82111561335557613354613702565b5b61335e82613731565b9050602081019050919050565b600067ffffffffffffffff82111561338657613385613702565b5b61338f82613731565b9050602081019050919050565b600081519050919050565b600081519050919050565b600082825260208201905092915050565b600082825260208201905092915050565b600081905092915050565b60006133ea82613528565b91506133f583613528565b9250827fffffffffffffffffffffffffffffffffffffffffffffffffffffffffffffffff0382111561342a57613429613675565b5b828201905092915050565b600061344082613528565b915061344b83613528565b92508261345b5761345a6136a4565b5b828204905092915050565b600061347182613528565b915061347c83613528565b92508282101561348f5761348e613675565b5b828203905092915050565b60006134a582613508565b9050919050565b60006134b782613508565b9050919050565b60008115159050919050565b60007fffffffff0000000000000000000000000000000000000000000000000000000082169050919050565b60006135018261349a565b9050919050565b600073ffffffffffffffffffffffffffffffffffffffff82169050919050565b6000819050919050565b600061353d82613544565b9050919050565b600061354f82613508565b9050919050565b82818337600083830152505050565b60005b83811015613583578082015181840152602081019050613568565b83811115613592576000848401525b50505050565b600060028204905060018216806135b057607f821691505b602082108114156135c4576135c36136d3565b5b50919050565b6135d382613731565b810181811067ffffffffffffffff821117156135f2576135f1613702565b5b80604052505050565b600061360682613528565b91507fffffffffffffffffffffffffffffffffffffffffffffffffffffffffffffffff82141561363957613638613675565b5b600182019050919050565b600061364f82613528565b915061365a83613528565b92508261366a576136696136a4565b5b828206905092915050565b7f4e487b7100000000000000000000000000000000000000000000000000000000600052601160045260246000fd5b7f4e487b7100000000000000000000000000000000000000000000000000000000600052601260045260246000fd5b7f4e487b7100000000000000000000000000000000000000000000000000000000600052602260045260246000fd5b7f4e487b7100000000000000000000000000000000000000000000000000000000600052604160045260246000fd5b6000601f19601f8301169050919050565b7f6974656d20616c726561647920736f6c64000000000000000000000000000000600082015250565b7f6e6f7420656e6f75676820657468657220746f20636f766572206974656d207060008201527f7269636500000000000000000000000000000000000000000000000000000000602082015250565b7f5072696365206d7573742062652067726561746572207468616e207a65726f00600082015250565b7f4552433732313a207472616e7366657220746f206e6f6e20455243373231526560008201527f63656976657220696d706c656d656e7465720000000000000000000000000000602082015250565b7f4f776e61626c653a206e6577206f776e657220697320746865207a65726f206160008201527f6464726573730000000000000000000000000000000000000000000000000000602082015250565b7f4552433732313a207472616e736665722066726f6d20696e636f72726563742060008201527f6f776e6572000000000000000000000000000000000000000000000000000000602082015250565b7f4552433732313a20746f6b656e20616c7265616479206d696e74656400000000600082015250565b7f4552433732313a207472616e7366657220746f20746865207a65726f2061646460008201527f7265737300000000000000000000000000000000000000000000000000000000602082015250565b7f4552433732313a20617070726f766520746f2063616c6c657200000000000000600082015250565b7f4552433732313a206f70657261746f7220717565727920666f72206e6f6e657860008201527f697374656e7420746f6b656e0000000000000000000000000000000000000000602082015250565b7f6974656d20646f65736e27742065786973740000000000000000000000000000600082015250565b7f4552433732313a20617070726f76652063616c6c6572206973206e6f74206f7760008201527f6e6572206e6f7220617070726f76656420666f7220616c6c0000000000000000602082015250565b7f4552433732313a2062616c616e636520717565727920666f7220746865207a6560008201527f726f206164647265737300000000000000000000000000000000000000000000602082015250565b7f4552433732313a206f776e657220717565727920666f72206e6f6e657869737460008201527f656e7420746f6b656e0000000000000000000000000000000000000000000000602082015250565b7f45524337323155524953746f726167653a2055524920736574206f66206e6f6e60008201527f6578697374656e7420746f6b656e000000000000000000000000000000000000602082015250565b7f4552433732313a206d696e7420746f20746865207a65726f2061646472657373600082015250565b7f45524337323155524953746f726167653a2055524920717565727920666f722060008201527f6e6f6e6578697374656e7420746f6b656e000000000000000000000000000000602082015250565b7f4552433732313a20617070726f76656420717565727920666f72206e6f6e657860008201527f697374656e7420746f6b656e0000000000000000000000000000000000000000602082015250565b7f4f776e61626c653a2063616c6c6572206973206e6f7420746865206f776e6572600082015250565b7f4552433732314d657461646174613a2055524920717565727920666f72206e6f60008201527f6e6578697374656e7420746f6b656e0000000000000000000000000000000000602082015250565b7f4552433732313a20617070726f76616c20746f2063757272656e74206f776e6560008201527f7200000000000000000000000000000000000000000000000000000000000000602082015250565b7f4552433732313a207472616e736665722063616c6c6572206973206e6f74206f60008201527f776e6572206e6f7220617070726f766564000000000000000000000000000000602082015250565b7f5265656e7472616e637947756172643a207265656e7472616e742063616c6c00600082015250565b613d348161349a565b8114613d3f57600080fd5b50565b613d4b816134be565b8114613d5657600080fd5b50565b613d62816134ca565b8114613d6d57600080fd5b50565b613d79816134f6565b8114613d8457600080fd5b50565b613d9081613528565b8114613d9b57600080fd5b5056fea2646970667358221220df813b3a044c0eb99fefbc422fa163688e94a5f15e23fb0be5edcdfbaf529e5964736f6c63430008040033",
  "linkReferences": {},
  "deployedLinkReferences": {}
}